:200000000080202001150000FD140000FD14000000000000000000000000000000000000E8
:20002000000000000000000000000000FD1400000000000000000000FD1400002D11000060
:20004000FD14000019050000FD140000FD140000FD140000FD140000FD140000FD1400000B
:2000600000000000FD140000FD1400000000000000000000FD14000071040000FD140000C7
:20008000FD140000FD140000FD140000FD140000FD140000FD1400000000000000000000FA
:2000A000FD140000FD1400000000000000000000FD14000000000000FD140000FD140000EB
:2000C00080B58EB03A200721029100F0BFFF01200790810648480A9001F036F80299352072
:2000E00000F0B4FF07990A98090601F02DF83420082100F0ABFF07990A98C90501F024F8C2
:2001000006200221069100F0A1FF0A980421039101F01AF80399002309930193009314205B
:2001200004901A4600F09CFC0399099B01930093152005901A4600F093FC049800F05CFF4C
:20014000059800F059FF06992D2000F07FFF06992E2000F005FF0699262000F077FF069995
:20016000272000F0FDFE0699099800F06FFF0699079800F0F5FE132000F0FEFF232000F03B
:20018000FBFF222000F0F8FF212000F0F5FF0798099B0093420408922C20194600F0BAFC10
:2001A000089A099B00932B20194600F0B3FC2A2000F03EFF089A099B00932020194600F03E
:2001C000A9FC0A98392149020B9101F009F90A980B9900F0B9FF09480C90882100F0E4FF4D
:2001E0000C98052149040D9100F0F8FE0C980D9900F010FF0EB080BD00000A4000200A406C
:20020000B0B5364A80184A6842600A78222A56D8930001A4E3589F46B5020000BF02000041
:20022000B5020000BF020000BF020000BF020000BF020000BF020000BF020000BF020000C0
:20024000BF020000BF020000BF020000BF020000BF020000BF020000A5020000BF020000B0
:20026000A5020000BF020000BF020000BF020000BF020000BF020000BF020000BF02000090
:20028000BF020000BF020000BF020000BF020000BF020000BF020000A5020000BF02000070
:2002A000A5020000036803242407A343012464071B1903E0036803242407A34303600B69D3
:2002C000C360CB68C46A064D2540064C1C402B19C362097A11430160B0BDC0460418000004
:2002E0008888FDFF77770200F0B5294A8218294BC0180B79202B0DD0274C002B1CD10D6858
:200300006D1E4560C56E25408835C5660646703688251CE00C68641E4460C46E1E4D2C40EF
:200320001E4EA419C466046F2C40A41904671C4C01256D0706460AE00525ED010E6876081F
:200340004660C66E26407619C66606467036376827402F433760C46A124D2C40C462046B13
:200360002C4004630024C4640465C46F8F25ED432C40C46714682C40146049791943026863
:20038000094B1340BD220A40D118891C0160F0BD841800000418000024493E000104000089
:2003A000FFFFFFCF8888FDFF4000FFCF80B58AB02548009000F0ECFE2448019000F0E8FE3E
:2003C0002348029000F05CFF2248039000F058FF2148049000F054FF2048059000F050FF15
:2003E0001F48069000F01CFF1E48079000F0A8FF1D48089000F0A4FF1C48099000F0A0FF45
:20040000009800F0ADFE019800F0AAFE029800F02BFF039800F028FF049800F025FF0598C5
:2004200000F022FF069800F0EFFE079800F070FF089800F06DFF099800F06AFF102001F01B
:2004400054F80AB080BDC04600000A4000200A4000A0864000000940004008400080864022
:2004600000000F4000201040000010400080104080B584B003A90020087002A90870244861
:2004800000F0EAFF10283FD1FFE7224800902B2100F00AFA0098007824282CD1FFE71D4877
:2004A0002A21405C232826D1FFE701A900200870FFE701A80078072819DCFFE701A80178B8
:2004C00005204843134940188079312809D1FFE701A800788021C1400398084303A90870D9
:2004E000FFE7FFE70198401C01A90870E1E702A901200870FFE703A8007802A909780122B5
:20050000114000F095FC00E0FFE704B080BDC04600201040F000202080B5012000F0B2FDB7
:20052000022837D1FFE70120C1041B4800F02CFF002813D0FFE701208104174800F024FF36
:20054000002805D0FFE715498868401C886004E012498868401E8860FFE7FFE7012041047F
:200560000D4800F011FF002813D0FFE701200104094800F009FF002805D0FFE707494869E2
:20058000401C486104E005494869401E4861FFE7FFE7FFE780BDC04600200A401C012020B0
:2005A00080B586B01C491D48059000F0A3FD05981B49FFF799FE059800230293009319460C
:2005C0001A4600F069FE029A0598114600F084FD029A05987D210902039100F071FF029BF0
:2005E000059801210491009119461A4600F054FE0299049A059800F06FFD0399049A05980C
:2006000000F05EFF059800F013FF0598032100F019FF06B080BDC0469E15000000A0864013
:200620008815000080B586B01C491D48059000F061FD05981B49FFF757FE05980023029364
:20064000009319461A4600F027FE029A0598114600F042FD029A05987D210902039100F00E
:200660002FFF029B059801210491009119461A4600F012FE0299049A059800F02DFD03997F
:20068000049A059800F01CFF059800F0D1FE0598032100F0D7FE06B080BDC046A115000083
:2006A0000000094090150000F0B5441C00780023082B30D02578C6070FD166782D013709E3
:2006C0007F190F253540ED1C122D0BD102256657F5B2002E08D4E61C0CE0641C4E1C0D70CB
:2006E000314615E0A61C06E0261DE4787F221540E20155191235094A97420ED0FC43002D43
:2007000005D00A5D4F1C0A706D1E3946F7E7344640085B1CCCE72046C7E7F0BDFF0F000015
:2007200080B582B016491748019000F09EFE0198154900F02DF90198002100F031FC0198FA
:200740001121172200F0FEF8019801210091C90300F0DEFC00990198890200F0A9FD01987A
:2007600000F0CAFD0198702100F03AFB0198022100F04AFB019800F012FE02B080BDC046F4
:20078000A8150000002010407C15000080B582B014491548019000F0BFFB01980321490237
:2007A00000F0A7FB019800F00BFD019800F022FE01981F2100F040FD01980021009100F02C
:2007C000FBFA0099019800F0E3FA019800F010FD0198064900F048FC019800F0FDFC02B03F
:2007E00080BDC046A415000000000F408704000080B582B014491548019000F036FE0198B4
:20080000134900F0C5F80198002100F0C9FB01981A21032200F096F801981121090300F023
:2008200077FC019800F05CFD019800F065FD0198702100F0D5FA0198072100F0E5FA019866
:2008400000F0ADFD02B080BDA6150000008010407215000080B582B01048009001210191FA
:200860000F4A00F081FA009801990E4A00F054FA009801992B2200F0CDF90098019900F095
:2008800012FBFFE70548012100F020FB002802D1FFE700BEF6E702B080BDC04600A0424058
:2008A00024311040F000202080B586B0059004A801900180059A0D4802900021039100F07A
:2008C0003FFA029803990A4A00F012FA019A02980399128800F086F9064800F0F5FC0298B6
:2008E000039900F0CDFA06B080BDC04600A042402091104000801040F0B581B006465368DC
:2009000094689589D0890090176950691C432C433C43009B1843000120430B01F3180924B0
:20092000640218511078527889007118024304480B58BF24A34322409A180A5001B0F0BDFB
:200940001011000080B584B003900291019203980B49401802990B4A00F0B6F903980A4990
:20096000401801993F2200F0AFF90399074A881889580122114000F0A7F904B080BDC04623
:2009800010110000FFFF0000141100000411000070B511221302C218C4580125AC43C45072
:2009A0000C888D7825438C882C43C558084E2E40084D2540AC19C4508879CB790343087A32
:2009C000184351687E23994318400818506070BDE798FDFF1867000080B5FFF7E7FCFFF733
:2009E0006FFB00F0ACFAFFF7DBFDFFF71BFE00F0ABF800F0C3F8FFF7C9FEFFF791FE00F0AA
:200A00000FF8FFF7F5FE00F06AFD03497422002088540249885480BD780020200000202055
:200A200080B582B00B490C48019000F01EFD01980A49FFF7ADFF0198002100F0B1FA01988F
:200A4000D0211522FFF77EFF019800F0A8FC02B080BDC04686150000000010406815000071
:200A600010B584B0079C069C039002910192009302980199084300990843069908430799FF
:200A800008430449084303998900034A885004B010BDC046800004000480424080B582B0B1
:200AA0000190FFE70198017800200029009005D0FFE70198411E88410090FFE70098C00783
:200AC000002807D0FFE70198411C0191007800F0B9F8E7E702B080BD70B50A480A4C844240
:200AE0000CD00A4D0A4EB54208D02A686968501C12789200A25890470835F4E700BF00BF4A
:200B000070BDC046DC150000D0150000E4150000F415000010B584B0069C03900291019276
:200B2000009302980199084300990843069908430349084303998900024A885004B010BD74
:200B4000810004000480424080B582B008490948019000F0CFFA01980749FFF751FB0198F3
:200B6000012100F0ABFA019800F062FC02B080BD98150000004008404015000080B582B0F7
:200B800008490948019000F0B5FA01980749FFF737FB0198012100F091FA019800F048FC6F
:200BA00002B080BD9B150000008086405415000080B582B000200190FFF70EFF00F000FAE2
:200BC0000748009000F084FC0146009889B2FFF76BFEFFF73FFE00F0D3F9FFE7FEE7C0468D
:200BE0003401202085B000920A460099019202460198049203AA107002A801800088049949
:200C0000127812018918024A885005B07047C0460C12000085B000920A4600990192024657
:200C20000198049203AA107002A8018000880499127812018918024A885005B07047C04634
:200C40000C12000080B582B001A90870FFE7074800F06AFB002801D0FFE7F8E701A8017883
:200C6000024800F0A7FB02B080BDC0460020104081B001466846017000214056002809D4E0
:200C8000FFE7684601781F2001400120884002490860FFE701B0704700E100E081B00146A4
:200CA0006846017000214056002809D4FFE7684601781F2001400120884002490860FFE74A
:200CC00001B0704700E100E084B00390029101920398006800900098019988430090009846
:200CE0000299019A114008430399086004B0704784B0009202460098039202AA11700190BA
:200D000001980399127812018918024A885004B07047C0460812000084B00092024600980B
:200D2000039202AA1170019001980399127812018918024A885004B07047C046081200003E
:200D400084B0009202460098039202AA1170019001980399127812018918024A885004B04F
:200D60007047C0460412000084B0009202460098039202AA117001900198039912781201D5
:200D80008918024A885004B07047C0460412000080B584B0019101460198039102A9088065
:200DA0000398044A8018098807221202FFF78CFF04B080BD3812000080B584B001910146E6
:200DC0000198039102A908700398044A801809780722FFF779FF04B080BDC04638120000E9
:200DE00080B584B0019101460198039102A908700398044A801809787022FFF765FF04B0BF
:200E000080BDC0460C11000080B584B0019101460198039102A908700398044A80180978DE
:200E20000722FFF751FF04B080BDC0460C11000082B001AA107068460170007801210840D1
:200E40000349087001980349087002B07047C0461B0120204A012020084880F3088800BF09
:200E600000BF00F04FFB002801D0FFF735FE0020FFF79EFE012000F047FBC046008020208C
:200E800083B0009101460098029101A90870029809780901411809204202885802231843AF
:200EA000885003B0704783B0009101460098029101A90870029809780901411809204202AD
:200EC000885802231843885003B0704783B0009101460098029101A90870029809780901F3
:200EE000401809214902405802210840400803B0704780B584B0019101460198039102A956
:200F000008800398092252028018098803225202FFF7DAFE04B080BD70B5012212038318D6
:200F20000C785D680C26B54334402C195C60497883580724A34321405918815070BD80B517
:200F400082B00020019000F083F9019800F0A8F800F0A6FA00F058FA00F060FA02B080BD0E
:200F600082B00190009100980349084301998900024A885002B070478000040004804240B4
:200F800080B50E20FFF78AFE0348FFF787FD03490020087080BDC046420120201B012020A5
:200FA00080B582B001900091019811210902401800990322D203FFF787FE02B080BD00007D
:200FC00080B500F075FA0F20FFF752FE02480021FFF756FF80BDC04600A0424082B001902A
:200FE0000091009B0199034A88581843885002B07047C0464810000081B00090009881002A
:20100000034A885801235B061843885001B070470480424082B001900091009B0199034AA7
:2010200088581843885002B07047C0462810000081B0009000988100024A0348885001B0FC
:201040007047C046048042408100040082B00190009100988021084301998900014A88502A
:2010600002B070470480424082B001900091009B0199034A88581843885002B07047C046A9
:201080002810000081B00146684601700178302048430249405801B07047C046001140404B
:2010A00080B582B0014601A80170017802480322FFF70AFE02B080BD00010B4082B0019084
:2010C0000091009B0199034A88581843885002B07047C0462810000010B592008018044A06
:2010E00083580724A404A34321405918815010BD3018000010B50122120383180C789C608C
:201100004B7883508978014A815010BD0C11000082B001900091009B0199034A8858184321
:20112000885002B07047C0462810000005480068002805D0FFE703490868401E0860FFE730
:201140007047C0464C01202082B00190009100980199024A885002B07047C046D01200004A
:2011600081B0009000990120C2020248885001B07047C0460100002681B00090009881009F
:20118000024A8120885001B07047C0460480424081B000900099024A0248885001B07047E6
:2011A00004080000030000B182B001900091009B01999D20420188581843885002B070476A
:2011C00081B00090009909204202885801231B021843885001B0704781B000900099034AE5
:2011E000885801231843885001B070472812000081B000900099034A885804231843885035
:2012000001B070472812000081B0009000990120C2020248885001B07047C0460100002636
:2012200081B000900099024A0248885001B0704704080000030000B182B0019068460170DC
:2012400000780199014A885002B070472412000081B001466846017000780249086001B047
:201260007047C04608030B4081B0009000990120C2020248885001B07047C0460100002665
:2012800081B000900099024A0248885001B0704704080000030000B110B5029CA40000193E
:2012A00011431943014A815010BDC0465018000082B00190009100980199024A885002B0CB
:2012C0007047C0465810000081B0009000990120C002024A885001B07047C0468810000082
:2012E00081B0009000990120C002024A885001B07047C0468810000081B0009000991120FC
:201300000202885801235B041843885001B0704781B0009000990120C2020248885001B0B9
:201320007047C0460100002681B000900098034940580121084001B07047C046081100009B
:2013400081B000900099024A0248885001B0704704080000030000B180B5034A03480121AE
:20136000FFF7CAFA80BDC0461015000000A0424080B5034A03480021FFF7BEFA80BDC0464A
:201380002815000000A0424082B00190009101982721C90140580099084002B0704781B0DC
:2013A0000090009911200202885801231843885001B0704782B0019068460170007801993C
:2013C00089225201885002B0704703228058002805D0401E4A1C00230B701146F7E7704786
:2013E00082B0019000910098019995225201885002B0704781B000900099024A002088507E
:2014000001B07047141200000349086801221202904308607047C04608010B400349086843
:2014200001221203104308607047C04604010B4081B000900099024A0120885001B07047A5
:201440000811000082B0019000910098019911221202885002B0704781B00090009881216A
:2014600049014058C0B201B0704710B50122120383180C789C604978815010BD10B5002351
:201480009A4203D0CC5CC4545B1CF9E710BD80B50B4603214258C11D184600F02BF880BD69
:2014A00002490868012290430860704708010B4002490868022290430860704710ED00E05A
:2014C00092008018014A81507047C046101800000021425C491C002AFBD1481E704780B575
:2014E000FFF73AFFFFF744FF80BD811E091F00BFFCD2704780B5FFF7C1FF80BDFFE7FEE749
:10150000AAE470470120704700BFFEE7000000001A
:20151000150000000000002000000000000000000000000000000300120000000000000071
:2015300000000000000000000000030000000000020000008F010000010000000000000005
:2015500000000000020000008F0100000100000000000000000000000000180000000030A0
:20157000000000001800000000300000000018000000003000000800007D00000001000045
:20159000007D000000010000080763080763080000080000080004000800000000000000B5
:2015B00000FF48656C6C6F20776FFF726C640D0A0024303F2C302C3123000003FFF0000069
:2015D000A90600008F140000CB1300000200000034010000B015000034012020DC15000069
:0815F0000000202000000000B3
:00000001FF
