:2000000000802020FF120000FB120000FB12000000000000000000000000000000000000F5
:20002000000000000000000000000000FB1200000000000000000000FB120000FB12000099
:20004000FB120000FB120000FB120000FB120000FB120000FB120000FB120000FB12000038
:2000600000000000FB120000FB1200000000000000000000FB120000FB120000FB1200003F
:20008000FB120000FB120000FB120000FB120000FB120000FB120000000000000000000012
:2000A000C1000000FB1200000000000000000000FB12000000000000FB120000FB1200004B
:2000C00080B582B0414801F0F1F8401E01900C2878D80198810001A04058874611010000B1
:2000E00019010000290100006B010000C3010000C3010000C5010000A5010000C301000098
:20010000C3010000A5010000C3010000C30100002F490620087056E02C48082100F02EFFE7
:200120002B49032008704EE0294905200870FFE7264800F03FFF002816D1FFE72848006824
:200140002849096888420AD2FFE7204801F07CF8234B1A68511C19602349885403E01B4800
:2001600001F072F8FFE7E3E72DE01949022008701848006818490968884212D2FFE71548E0
:20018000009002681548811813480068801A82B20E4800F03BFC0099024608688018086010
:2001A000FFE710E00A480078042805D0FFE708480078012804D1FFE7054907200870FFE739
:2001C000FFE7FFE7FFE702B080BDC04600000F40A8012020A0012020A401202088012020B1
:2001E000980120209C0120207801202010B58CB00BAC20700AA8017009A8027008A80370DF
:2002000007AA002111700278520806AB1A7005AA11800078082804D1FFE704A9062008807E
:2002200012E008A801780191C80802904907401C0029039001D102980390019803994008CB
:20024000484304A90880FFE70998203807A908700BA800780AA9097800F0F8FC05A90020C6
:200260000880FFE705A8008804A90988884242DAFFE705A8008806A9097800F0A9FC0029AE
:200280000ED1FFE708A80078082809D0FFE70BA800780AAB19784A1C1A7000F0D7FCFFE778
:2002A00008A8007808280DD1FFE707A80078062141431348401805A90988405C012100F0B0
:2002C0002BF912E008A8007810280CD1FFE707A8007801010948401805A90988405C012116
:2002E00000F01AF900E006E0FFE7FFE70598401C05A90880B6E70CB010BDC04610130000EB
:200300000019000080B58CB014200521099100F027FE0120059081023D48079000F09EFE69
:200320000999152000F01CFE05990798C90200F095FE09992D2000F013FE059907984905D6
:2003400000F08CFE09992E2000F00AFE05990798890500F083FE00230493019300930220FC
:200360000690032103911A4600F052FC0399049B0998019300931A4600F04AFC069800F06A
:20038000C5FD099800F0C2FD0699262000F0E8FD0699272000F08CFD0498069900F0E0FD2A
:2003A0000598069900F084FD132000F06FFE232000F06CFE222000F069FE212000F066FE35
:2003C0002C2000F0BFFD2B2000F0BCFD2A2000F0B9FD202000F0B6FD079839214902089181
:2003E00000F01EFF0798089900F038FE09480A90882100F063FE09990A9849040B9100F088
:2004000077FD0A980B9900F08FFD0CB080BDC04600000A4000200A4080B584B0C820009012
:2004200000F034FD182000F069FCAE200021039100F072F80399084600F06EF80399102025
:2004400000F06AF803994020019000F065F80399812000F061F80399CF2000F05DF803997E
:20046000A12000F059F80098039900F055F80399A620029000F050F80399A82000F04CF845
:2004800003993F2000F048F80399D32000F044F80399084600F040F80399D52000F03CF8AF
:2004A0000399802000F038F80399D92000F034F80399F12000F030F80399DA2000F02CF8C0
:2004C0000399122000F028F80399DB2000F024F80198039900F020F80399202000F01CF87E
:2004E0000399022000F018F803998D2000F014F80399142000F010F80399A42000F00CF8DD
:200500000298039900F008F800F018FA0399AF2000F002F804B080BD80B586B005AA1070D3
:2005200004A801702E4A002111702E4A022111600078002804D0FFE72B494020087003E0EF
:20054000294900200870FFE7059827494870254802882648029000F059FA01460298244A5D
:200560001160082100F00AFD1D4901200870FFE71E4800F05FFE8006002801D4FFE7F7E70B
:200580001848038819483C21002200F06FFAFFE71348017800200329019007D0FFE710488B
:2005A0000078C01F411E88410190FFE70198C007002801D0FFE7EBE7FFE70C4800F03AFED2
:2005C0004006002801D5FFE7F7E7FFE7074800F031FE8006002801D4FFE7F7E706B080BD85
:2005E000A8012020A40120208801202000000F40A0012020F0B5294A8218294BC0180B79B2
:20060000202B0DD0274C002B1CD10D686D1E4560C56E25408835C5660646703688251CE067
:200620000C68641E4460C46E1E4D2C401E4EA419C466046F2C40A41904671C4C01256D07BB
:2006400006460AE00525ED010E6876084660C66E26407619C66606467036376827402F43F3
:200660003760C46A124D2C40C462046B2C4004630024C4640465C46F8F25ED432C40C4671F
:2006800014682C401460497919430268094B1340BD220A40D118891C0160F0BD841800006E
:2006A0000418000024493E0001040000FFFFFFCF8888FDFF4000FFCF80B588B01A48019028
:2006C00000F0F0FC1948029000F0ECFC1848039000F060FD1748049000F05CFD1648059004
:2006E00000F028FD1548069000F078FD1448079000F074FD019800F0BDFC029800F0BAFCB7
:20070000039800F03BFD049800F038FD059800F005FD069800F056FD079800F053FD1020D6
:2007200000F0E6FD08B080BD00000A4000200A40002086400000864000000F4000001040F2
:200740000080104080B586B01C491D48059000F077FC05981B4900F079F8059800230293E5
:20076000009319461A4600F021FD029A0598114600F058FC029A05987D210902039100F0DF
:20078000AFFD029B059801210491009119461A4600F00CFD0299049A059800F043FC0399D2
:2007A000049A059800F09CFD059800F06BFD0598032100F071FD06B080BDC0465C1B0000F1
:2007C000002086404C1B000080B586B01C491D48059000F035FC05981B4900F037F8059824
:2007E00000230293009319461A4600F0DFFC029A0598114600F016FC029A05987D210902B0
:20080000039100F06DFD029B059801210491009119461A4600F0CAFC0299049A059800F02D
:2008200001FC0399049A059800F05AFD059800F029FD0598032100F02FFD06B080BDC04614
:200840005F1B000000008640541B000070B582B04A790B79002A25D0184A202B02D0052484
:20086000E40100E0164C8218002B00D18824156C144E35402D191564556C35402C195464C5
:200880001468114D2C40146054682C405460002414625462146D8F25ED432C401465546D67
:2008A0002C4054650A6800926A461371897951711146FFF79FFE02B070BDC04638180000F8
:2008C0000104000024493E008888FDFFB0B586B005AC207004A80170039202A8037001A907
:2008E00000200870FFE7039801A90978405C002822D0FFE705A8007804A90978039A01AD7A
:200900002B785C1C2C70D25C02AB00931B78FFF76DFC00980078082805D1FFE70598801D8A
:2009200005A9087007E002A8007841080598401805A90870FFE7D6E706B0B0BD80B584B0F5
:2009400003A900200870FFE703A80078072828DCFFE70398B030C0B200210191FFF7DCFDC2
:2009600001990846FFF7D8FD01991020FFF7D4FD019802A90870FFE702A800787F280ADCE2
:20098000FFE700200121FFF7C7FDFFE70298401C02A90870F0E7FFE70398401C03A908709E
:2009A000D2E704B080BD704780B582B014491548019000F046FA01980321490200F02EFAD4
:2009C000019800F087FB019800F048FC01981F2100F0BCFB01980021009100F0F7F90099FB
:2009E000019800F0DFF9019800F08CFB0198064900F0D2FA019800F079FB02B080BDC046F0
:200A0000621B000000000F4087040000F0B581B0002A22D091235B01C3180F200402901EBF
:200A20000090561E0020DF6927421BD00F5C1F60864210D0DF69274211D00F187D781D6039
:200A4000009D854207D0DD6925420AD0BD781D60C01C8242E7D1104604E0002002E0401C32
:200A600000E0801C80B201B0F0BD000010B586B00192024601980592049103AA107002A8F8
:200A800003800598094940180499490012781143074A00F05EF90598064940180299090444
:200AA000C91D054A00F055F906B010BD10120000FF070000141200000700FF0F80B584B074
:200AC00003900291019203980B49401802990B4A00F053F903980A49401801993F2200F0B9
:200AE0004CF90399074A881889580122114000F044F904B080BDC04610110000FFFF00008C
:200B0000141100000411000070B511221302C218C4580125AC43C4500C888D7825438C88FA
:200B20002C43C558084E2E40084D2540AC19C4508879CB790343087A184351687E23994334
:200B400018400818506070BDE798FDFF1867000080B582B00B490C48019000F0B0FB019872
:200B60000A49FFF7D1FF0198002100F0B1F90198D0211522FFF7A2FF019800F03BFB02B03F
:200B800080BDC0464A1B000000801040361B000080B582B00B490C48019000F090FB0198D8
:200BA0000A49FFF7B1FF0198002100F091F90198D0211522FFF782FF019800F01BFB02B07F
:200BC00080BDC046641B000000001040401B00001CB50A0017D000230124E407A04200D2FF
:200BE0000400944201D95200FBE790425B41904200D3801A914201D25208F6E71900020068
:200C0000080011001CBD01000020FFF7CCFE1CBD10B584B0079C069C03900291019200939E
:200C20000298019908430099084306990843079908430449084303998900034A885004B0E6
:200C400010BDC046800004000480424080B584B003AA0092107002A801700298B030C0B208
:200C600000210191FFF758FC00980199007800091030FFF751FC0098019900780F22104016
:200C8000FFF74AFC04B080BD70B50A480A4C84420CD00A4D0A4EB54208D02A686968501C6B
:200CA00012789200A25890470835F4E700BF00BF70BDC046741B0000701B0000741B0000D5
:200CC0007C1B000080B5FFF7F7FCFFF71BFB00F02BF8FFF737FDFFF777FDFFF765FEFFF75D
:200CE00057FFFFF735FF0349B822002088540249885480BD00002020BC00202081B001463A
:200D00006846017000214056002809D4FFE7684601781F2001400120884002490860FFE7E9
:200D200001B0704700E100E080B582B00020019000F018FA019800F059F900F0C9FA00F0F2
:200D400097FA019800F060F9019800F041F902B080BD84B0039002910192039800680090EE
:200D6000009801998843009000980299019A114008430399086004B0704784B003900291B3
:200D80000192039800680090009801998843009000980299019A114008430399086004B07E
:200DA0007047000080B584B0019101460198039102A908800398044A80180988072212028B
:200DC000FFF7DBFF04B080BD3812000080B584B0019101460198039102A908700398044A8D
:200DE000801809780722FFF7C8FF04B080BDC04638120000084880F3088800BF00BF00F0F2
:200E000080FA002801D0FFF73FFF002000F02CF8012000F078FAC0460080202080B584B045
:200E2000019101460198039102A908800398092252028018098803225202FFF79EFF04B076
:200E400080BD70B50122120383180C785D680C26B54334402C195C60497883580724A343C8
:200E600021405918815070BD80B582B000200190FFF728FFFFF7D0FA034A082002211023E2
:200E8000FFF724FDFFE7FEE7281B000080B582B00190FFE70198411E0191002805D0FFE7E2
:200EA0007D20000200F024FAF4E702B080BD000082B0019000910098034908430199890015
:200EC000024A885002B07047800004000480424080B582B001900091019811210902401844
:200EE00000990322D203FFF748FF02B080BD000082B001900091009B0199034A8858184322
:200F0000885002B07047C0464810000081B0009000988100034A885801235B061843885073
:200F200001B070470480424082B001900091009B0199034A88581843885002B07047C046EB
:200F40002810000081B0009000988100024A0348885001B07047C046048042408100040017
:200F600082B00190009100988021084301998900014A885002B070470480424082B0019021
:200F80000091009B0199034A88589843885002B07047C0462810000082B001900091009B15
:200FA0000199034A88581843885002B07047C0462810000081B000900098044940580F2122
:200FC00008404142484101B07047C0463C12000080B582B0014601A80170017802480F2245
:200FE000FFF7CBFE02B080BD04010B4080B582B0014601A80170017802480322FFF7BDFE92
:2010000002B080BD00010B4080B582B0014601A80170017802483022FFF7AFFE02B080BD26
:2010200004010B4010B592008018044A83580724A404A34321405918815010BD30180000D7
:2010400010B50122120383180C789C604B7883508978014A815010BD0C11000082B0019018
:20106000009100980199024A885002B07047C046D012000081B0009000990120C2020248AF
:20108000885001B07047C0460100002681B0009000988100024A8120885001B07047C046D6
:2010A0000480424081B000900099024A0248885001B0704704080000030000B182B0019077
:2010C0000091009B01999D20420188581843885002B0704781B00090009909204202885827
:2010E00001231B021843885001B0704781B000900099034A885801231843885001B07047CE
:201100002812000081B000900099034A885804231843885001B070472812000081B0009051
:2011200000990120C2020248885001B07047C0460100002681B000900099024A02488850B2
:2011400001B0704704080000030000B182B001906846017000780199014A885002B07047E7
:201160002412000081B001466846017000780249086001B07047C04608030B4081B00090F2
:2011800000990120C2020248885001B07047C0460100002681B000900099024A0248885052
:2011A00001B0704704080000030000B110B5029CA400001911431943014A815010BDC04648
:2011C0005018000081B0009000990120C2020248885001B07047C0460100002681B00090F0
:2011E0000099024A0248885001B0704704080000030000B181B00090009911200202885851
:2012000001231843885001B0704703228058002805D0401E4A1C00230B701146F7E77047C7
:2012200082B0019000910098019995225201885002B0704781B0009000980249405801B0F0
:201240007047C0461812000081B00090009802494058C0B201B070471C12000081B00090A2
:201260000099024A0020885001B07047141200000349086801221202904308607047C04618
:2012800008010B4081B000900099024A0120885001B070470811000082B0019000910098EE
:2012A000019911221202885002B0704781B000900098812149014058C0B201B0704710B590
:2012C0000122120383180C789C604978815010BD02490868012290430860704708010B4038
:2012E00092008018014A81507047C04610180000811E091F00BFFCD27047FFE7FEE779E58F
:1013000070470120704700BFFEE7000000000000AA
:2013100000000000000000000000000000000000000000F800000000000000333000000062
:2013300000100C06100C0600000000000000000040C07840C0784000043F04043F04040097
:20135000007088FC08300000001820FF211E0000F008F000E018000000211C031E211E005E
:2013700000F00888700000001E2123241927211010160E0000000000000000000000000042
:20139000000000E018040200000000071820400000020418E0000000004020180700000043
:2013B000404080F0804040000202010F01020200000000F0000000000101011F01010100FF
:2013D000000000000000000080B07000000000000000000000000000000101010101010156
:2013F000000000000000000000303000000000000000000080601804006018060100000002
:2014100000E010080810E000000F102020100F00001010F8000000000020203F2020000077
:201430000070080808887000003028242221300000300888884830000018202020110E00D6
:201450000000C02010F8000000070424243F240000F80888880808000019212020110E0025
:2014700000E0108888180000000F112020110E0000380808C83808000000003F0000000036
:201490000070880808887000001C222121221C0000E010080810E0000000312222110F00F9
:2014B000000000C0C0000000000000303000000000000080000000000000806000000000DC
:2014D0000000804020100800000102040810200040404040404040000404040404040400E9
:2014F00000081020408000000020100804020100007048080808F00000000030360100007E
:20151000C030C828E810E0000718272423140B000000C038E0000000203C2302022738207D
:2015300008F8888888700000203F202020110E00C0300808080838000718202020100800D6
:2015500008F808080810E000203F202020100F0008F88888E8081000203F2020232018008B
:2015700008F88888E8081000203F200003000000C03008080838000007182020221E0200E8
:2015900008F808000008F808203F210101213F20000808F8080800000020203F2020000052
:2015B00000000808F8080800C08080807F00000008F888C028180800203F200126382000B6
:2015D00008F8080000000000203F20202020300008F8F800F8F80800203F003F003F2000F7
:2015F00008F830C00008F808203F200007183F00E01008080810E0000F10202020100F0070
:2016100008F808080808F000203F210101010000E01008080810E0000F18242438504F00E9
:2016300008F8888888887000203F2000030C302000708808080838000038202121221C000C
:20165000180808F8080818000000203F2000000008F808000008F808001F202020201F00E5
:201670000878880000C83808000007380E010000F80800F80008F800033C0700073C030078
:20169000081868808068180820302C03032C30200838C800C83808000000203F200000009D
:2016B00010080808C83808002038262120201800000000FE020202000000007F40404000B0
:2016D000000C30C000000000000000010638C00000020202FE000000004040407F000000BC
:2016F0000000040202020400000000000000000000000000000000008080808080808080CC
:201710000002020400000000000000000000000000008080808000000019242222223F20AF
:2017300008F8008080000000003F112020110E000000008080800000000E112020201100DA
:20175000000000808088F800000E112020103F200000808080800000001F22222222130071
:20177000008080F0888888180020203F202000000000808080808000006B94949493600060
:2017900008F8008080800000203F210000203F2000809898000000000020203F202000004B
:2017B000000000809898000000C08080807F000008F8000080808000203F24022D30200028
:2017D000000808F8000000000020203F202000008080808080808000203F20003F20003F95
:2017F0008080008080800000203F210000203F200000808080800000001F202020201F009C
:20181000808000808000000080FFA12020110E000000008080808000000E112020A0FF80BB
:20183000808080008080800020203F2120000100000080808080800000332424242419007B
:20185000008080E0808000000000001F202000008080000000808000001F202020103F204B
:20187000808080000080808000010E300806010080800080008080800F300C030C300F0071
:2018900000808000808080000020312E0E312000808080000080808080818E7018060100BC
:2018B00000808080808080000021302C2221300000000000807C020200000000003F404069
:2018D00000000000FF00000000000000FF0000000002027C800000000040403F000000003B
:2018F000000601010202040400000000000000000000000000000000002F0000000007008E
:20191000070000147F147F1400242A7F2A120062640813230036495522500000050300001B
:2019300000001C224100000041221C000014083E08140008083E0808000000A060000008BD
:2019500008080808000060600000002010080402003E5149453E0000427F40000042615109
:201970004946002141454B31001814127F10002745454539003C4A494930000171090503DE
:2019900000364949493600064949291E000036360000000056360000000814224100001486
:2019B0001414141400004122140800020151090600324959513E007C1211127C007F494944
:2019D0004936003E41414122007F4141221C007F49494941007F09090901003E4149497A55
:2019F000007F0808087F0000417F4100002040413F01007F08142241007F40404040007FE3
:201A1000020C027F007F0408107F003E4141413E007F09090906003E4151215E007F09193E
:201A300029460046494949310001017F0101003F4040403F001F2040201F003F4038403F20
:201A500000631408146300070870080700615149454300007F41410000552A552A5500001B
:201A700041417F00000402010204004040404040000001020400002054545478007F484462
:201A9000443800384444442000384444487F00385454541800087E0901020018A4A4A47CB1
:201AB000007F080404780000447D4000004080847D00007F102844000000417F4000007CD6
:201AD00004180478007C0804047800384444443800FC242424180018242418FC007C0804A2
:201AF000040800485454542000043F444020003C4040207C001C2040201C003C4030403C47
:201B1000004428102844001CA0A0A07C004464544C441414141414145A484F4E474A494EEA
:201B3000475955414E0000001800000000300000000018000000003000000800007D0000FC
:181B500000010000007D000000010000080000080000080008000000DE
:181B680000000000A90100000B120000681B00000000202000000000DB
:00000001FF
