:20000000008020208914000085140000851400000000000000000000000000000000000051
:2000200000000000000000000000000085140000000000000000000085140000C5100000B9
:2000400085140000210500008514000085140000851400008514000085140000851400004B
:2000600000000000851400008514000000000000000000008514000071040000890B0000AC
:200080008514000085140000851400008514000085140000851400000000000000000000CA
:2000A000851400008514000000000000000000008514000000000000851400008514000043
:2000C00080B58EB03A200721029100F08BFF01200790810648480A9001F002F802993520DA
:2000E00000F080FF07990A98090600F0F9FF3420082100F077FF07990A98C90500F0F0FF86
:2001000006200221069100F06DFF0A980421039100F0E6FF039900230993019300931420BD
:2001200004901A4600F06AFC0399099B01930093152005901A4600F061FC049800F028FFE4
:20014000059800F025FF06992D2000F04BFF06992E2000F0DFFE0699262000F043FF069958
:20016000272000F0D7FE0699099800F03BFF0699079800F0CFFE132000F0CAFF232000F0EF
:20018000C7FF222000F0C4FF212000F0C1FF0798099B0093420408922C20194600F0A6FCC0
:2001A000089A099B00932B20194600F09FFC2A2000F00AFF089A099B00932020194600F086
:2001C00095FC0A98392149020B9101F0D3F80A980B9900F085FF09480C90882100F0B0FF00
:2001E0000C98052149040D9100F0C4FE0C980D9900F0DCFE0EB080BD00000A4000200A40D5
:20020000B0B5364A80184A6842600A78222A56D8930001A4E3589F46B5020000BF02000041
:20022000B5020000BF020000BF020000BF020000BF020000BF020000BF020000BF020000C0
:20024000BF020000BF020000BF020000BF020000BF020000BF020000A5020000BF020000B0
:20026000A5020000BF020000BF020000BF020000BF020000BF020000BF020000BF02000090
:20028000BF020000BF020000BF020000BF020000BF020000BF020000A5020000BF02000070
:2002A000A5020000036803242407A343012464071B1903E0036803242407A34303600B69D3
:2002C000C360CB68C46A064D2540064C1C402B19C362097A11430160B0BDC0460418000004
:2002E0008888FDFF77770200F0B5294A8218294BC0180B79202B0DD0274C002B1CD10D6858
:200300006D1E4560C56E25408835C5660646703688251CE00C68641E4460C46E1E4D2C40EF
:200320001E4EA419C466046F2C40A41904671C4C01256D0706460AE00525ED010E6876081F
:200340004660C66E26407619C66606467036376827402F433760C46A124D2C40C462046B13
:200360002C4004630024C4640465C46F8F25ED432C40C46714682C40146049791943026863
:20038000094B1340BD220A40D118891C0160F0BD841800000418000024493E000104000089
:2003A000FFFFFFCF8888FDFF4000FFCF80B58AB02548009000F0B8FE2448019000F0B4FEA6
:2003C0002348029000F028FF2248039000F024FF2148049000F020FF2048059000F01CFFE5
:2003E0001F48069000F0E8FE1E48079000F068FF1D48089000F064FF1C48099000F060FF3A
:20040000009800F079FE019800F076FE029800F0F7FE039800F0F4FE049800F0F1FE0598CC
:2004200000F0EEFE069800F0BBFE079800F024FF089800F021FF099800F01EFF102001F068
:2004400013F80AB080BDC04600000A4000200A4000A0864000000940004008400080864063
:2004600000000F4000201040000010400080104080B584B003A90020087002A90870254860
:2004800000F0BEFF102841D1FFE72348009000F0F1FA224800F0EEFA0098007824282CD10E
:2004A000FFE71D482A21405C232826D1FFE701A900200870FFE701A80078072819DCFFE78F
:2004C00001A8017805204843134940188079312809D1FFE701A800788021C14003980843DB
:2004E00003A90870FFE7FFE70198401C01A90870E1E702A901200870FFE703A8007802A935
:2005000009780122114000F07FFC00E0FFE704B080BDC04600201040F000202014150000F5
:2005200080B5012000F07AFD022837D1FFE70120C1041B4800F0E7FE002813D0FFE70120B6
:200540008104174800F0DFFE002805D0FFE715498868401C886004E012498868401E886000
:20056000FFE7FFE7012041040D4800F0CCFE002813D0FFE701200104094800F0C4FE0028F8
:2005800005D0FFE707494869401C486104E005494869401E4861FFE7FFE7FFE780BDC046BB
:2005A00000200A401C01202080B586B01C491D48059000F06BFD05981B49FFF795FE05982B
:2005C00000230293009319461A4600F031FE029A0598114600F04CFD029A05987D21090247
:2005E000039100F039FF029B059801210491009119461A4600F01CFE0299049A059800F02E
:2006000037FD0399049A059800F026FF059800F0D9FE0598032100F0DFFE06B080BDC046CF
:200620000E15000000A08640F814000080B586B01C491D48059000F029FD05981B49FFF74E
:2006400053FE059800230293009319461A4600F0EFFD029A0598114600F00AFD029A059806
:200660007D210902039100F0F7FE029B059801210491009119461A4600F0DAFD0299049A17
:20068000059800F0F5FC0399049A059800F0E4FE059800F097FE0598032100F09DFE06B00F
:2006A00080BDC046111500000000094000150000F0B5441C00780023082B30D02578C60736
:2006C0000FD166782D0137097F190F253540ED1C122D0BD102256657F5B2002E08D4E61CF2
:2006E0000CE0641C4E1C0D70314615E0A61C06E0261DE4787F221540E20155191235094A13
:2007000097420ED0FC43002D05D00A5D4F1C0A706D1E3946F7E7344640085B1CCCE720465B
:20072000C7E7F0BDFF0F000080B582B016491748019000F06EFE0198154900F0D3F80198F3
:20074000002100F007FC01981121172200F0A4F8019801210091C90300F0A6FC0099019819
:20076000890200F071FD019800F07AFD0198702100F00EFB0198022100F01EFB019800F01F
:20078000CDFD02B080BDC0461B15000000201040EC14000080B582B014491548019000F058
:2007A00094FB01980321490200F07CFB019800F0D3FC019800F0E8FD01981F2100F008FDA7
:2007C00001980021009100F0CFFA0099019800F0B7FA019800F0D8FC0198064900F010FC01
:2007E000019800F0C5FC02B080BDC0461915000000000F408704000080B582B01048009063
:20080000002101910F4A00F087FA009801990E4A00F06EFA009801992B2200F0CFF90098AA
:20082000019900F019FBFFE70548002100F027FB002802D1FFE700BEF6E702B080BDC04643
:2008400000A0424024311040F0002020F0B581B00646536894689589D08900901769506988
:200860001C432C433C43009B1843000120430B01F31809246402185110785278890071185A
:20088000024304480B58BF24A34322409A180A5001B0F0BD1011000080B584B0039002911F
:2008A000019203980B49401802990B4A00F00CFA03980A49401801993F2200F005FA0399AC
:2008C000074A881889580122114000F0FDF904B080BDC04610110000FFFF000014110000B1
:2008E0000411000070B511221302C218C4580125AC43C4500C888D7825438C882C43C558B6
:20090000084E2E40084D2540AC19C4508879CB790343087A184351687E239943184008186A
:20092000506070BDE798FDFF1867000080B582B00D490E48019000F06CFD01980C49FFF7FF
:20094000D1FF0198002100F005FB01981A210322FFF7A2FF01980121890200F0A5FB01981E
:2009600000F0DCFC02B080BDF614000000801040D814000080B5FFF719FDFFF7A1FB00F037
:20098000B7FAFFF711FEFFF751FE00F0C9F800F0E1F8FFF7FFFEFFF7C7FE00F00FF8FFF747
:2009A000C5FF00F066FD03497422002088540249885480BD780020200000202080B582B07F
:2009C0000B490C48019000F024FD01980A49FFF789FF0198002100F0BDFA0198D021152241
:2009E000FFF75AFF019800F099FC02B080BDC0461715000000001040E214000010B584B02A
:200A0000079C069C03900291019200930298019908430099084306990843079908430449C0
:200A2000084303998900034A885004B010BDC046800004000480424080B582B00190FFE732
:200A40000198017800200029009005D0FFE70198411E88410090FFE70098C007002807D05B
:200A6000FFE70198411C0191007800F0BFF8E7E702B080BD80B582B00190FFE7019801783C
:200A800000200029009005D0FFE70198411E88410090FFE70098C007002807D0FFE70198AE
:200AA000411C0191007800F0F9F8E7E702B080BD70B50A480A4C84420CD00A4D0A4EB5421C
:200AC00008D02A686968501C12789200A25890470835F4E700BF00BF70BDC0464C15000058
:200AE00040150000541500006415000010B584B0069C039002910192009302980199084359
:200B000000990843069908430349084303998900024A885004B010BD81000400048042401B
:200B200080B582B008490948019000F0AFFA01980749FFF765FB0198012100F08BFA01987A
:200B400000F040FC02B080BD0815000000400840B014000080B582B008490948019000F087
:200B600095FA01980749FFF74BFB0198012100F071FA019800F026FC02B080BD0B150000F1
:200B800000808640C414000080B582B001A900200870094800F034FC0B280AD1FFE70648DB
:200BA00000F024FC014601A80170007800F076F800E0FFE702B080BD0080104085B00092A2
:200BC0000A460099019202460198049203AA107002A8018000880499127812018918024A1B
:200BE000885005B07047C0460C12000080B582B001A90870FFE7074800F056FB002801D095
:200C0000FFE7F8E701A80178024800F09DFB02B080BDC0460020104081B00146684601701F
:200C200000214056002809D4FFE7684601781F2001400120884002490860FFE701B0704781
:200C400080E200E081B001466846017000214056002809D4FFE7684601781F200140012051
:200C6000884002490860FFE701B0704700E100E081B001466846017000214056002809D497
:200C8000FFE7684601781F2001400120884002490860FFE701B0704700E100E080B582B0B5
:200CA00001A90870FFE7074800F0F2FA002801D0FFE7F8E701A80178024800F03AFB02B000
:200CC00080BDC0460080104084B0039002910192039800680090009801998843009000985C
:200CE0000299019A114008430399086004B0704784B0009202460098039202AA11700190BA
:200D000001980399127812018918024A885004B07047C0460812000084B00092024600980B
:200D2000039202AA1170019001980399127812018918024A885004B07047C0460412000042
:200D400080B584B0019101460198039102A908800398044A8018098807221202FFF7B4FFF9
:200D600004B080BD3812000080B584B0019101460198039102A908700398044A80180978A4
:200D80000722FFF7A1FF04B080BDC0463812000080B584B0019101460198039102A90870C1
:200DA0000398044A801809787022FFF78DFF04B080BDC0460C11000080B584B001910146C7
:200DC0000198039102A908700398044A801809780722FFF779FF04B080BDC0460C11000016
:200DE00080B582B000200190FFF7C4FD00F080FA0448FFF73FFEFFF7FFFC00F09BF8FFE7E1
:200E0000FEE7C0463401202082B001AA10706846017000780121084003490870019803496B
:200E2000087002B07047C0461B0120204A012020084880F3088800BF00BF00F027FB0028D9
:200E400001D0FFF735FE0020FFF7CAFF012000F01FFBC0460080202083B000910146009825
:200E6000029101A90870029809780901411809204202885802231843885003B0704783B0FD
:200E8000009101460098029101A908700298097809014018092149024058022108404008F0
:200EA00003B0704780B584B0019101460198039102A90880039809225202801809880322BE
:200EC0005202FFF701FF04B080BD70B50122120383180C785D680C26B54334402C195C60F7
:200EE000497883580724A34321405918815070BD80B582B00020019000F076F9019800F075
:200F00009BF800F0A1FA00F049FA00F051FA02B080BD000082B001900091009803490843D3
:200F200001998900024A885002B07047800004000480424080B50E20FFF79AFE0348FFF745
:200F40007BFD03490020087080BDC046420120201B01202080B582B00190009101981121BF
:200F60000902401800990322D203FFF7ADFE02B080BD000082B001900091009B0199034A15
:200F800088581843885002B07047C0464810000081B0009000988100034A885801235B06EB
:200FA0001843885001B070470480424082B001900091009B0199034A88581843885002B0F5
:200FC0007047C0462810000081B0009000988100024A0348885001B07047C046048042405F
:200FE0008100040082B00190009100988021084301998900014A885002B0704704804240DF
:2010000082B001900091009B0199034A88581843885002B07047C0462810000081B00146C8
:20102000684601700178302048430249405801B07047C0460011404080B582B0014601A804
:201040000170017802480322FFF73EFE02B080BD00010B4082B001900091009B0199034AF4
:2010600088581843885002B07047C0462810000010B592008018044A83580724A404A343E5
:2010800021405918815010BD3018000010B50122120383180C789C604B7883508978014A9E
:2010A000815010BD0C11000082B001900091009B0199034A88581843885002B07047C0461D
:2010C0002810000005480068002805D0FFE703490868401E0860FFE77047C0464C0120208E
:2010E00082B00190009100980199024A885002B07047C046D012000081B00090009901207A
:20110000C2020248885001B07047C0460100002681B0009000988100024A8120885001B004
:201120007047C0460480424081B000900099024A0248885001B0704704080000030000B1FC
:2011400082B001900091009B01999D20420188581843885002B0704781B000900099092007
:201160004202885801231B021843885001B0704781B000900099034A885801231843885091
:2011800001B070472812000081B000900099034A885804231843885001B07047281200002A
:2011A00081B0009000990120C2020248885001B07047C0460100002681B000900099024A93
:2011C0000248885001B0704704080000030000B182B001906846017000780199014A8850AE
:2011E00002B070472412000081B001466846017000780249086001B07047C04608030B40CA
:2012000081B0009000990120C2020248885001B07047C0460100002681B000900099024A32
:201220000248885001B0704704080000030000B110B5029CA400001911431943014A815078
:2012400010BDC0465018000082B00190009100980199024A885002B07047C04658100000D2
:2012600081B00090009911200202885801235B041843885001B0704781B000900099012066
:20128000C2020248885001B07047C0460100002681B000900098034940580121084001B07B
:2012A0007047C0460811000081B000900098034940580121084001B07047C046081100002A
:2012C00081B000900099024A0248885001B0704704080000030000B180B5034A0348002130
:2012E000FFF7B4FA80BDC0469814000000A0424080B582B00F200190FFF78EFC0198FFF703
:20130000A1FC02B080BD82B00190009101982721C90140580099084002B0704781B000909F
:20132000009911200202885801231843885001B0704782B0019068460170007801998922A1
:201340005201885002B0704782B00190684601700078019989225201885002B070470322A1
:201360008058002805D0401E4A1C00230B701146F7E7704782B0019000910098019995220D
:201380005201885002B0704781B000900099024A0020885001B070471412000003490868D1
:2013A00001221202904308607047C04608010B400349086801221203104308607047C0463E
:2013C00004010B4081B000900099024A0120885001B070470811000082B0019000910098B1
:2013E000019911221202885002B0704781B00090009802494058C0B201B070472411000080
:2014000081B000900098812149014058C0B201B0704710B50122120383180C789C6049783C
:20142000815010BD10B500239A4203D0CC5CC4545B1CF9E710BD80B50B4603214258C11DF1
:20144000184600F01BF880BD02490868012290430860704708010B4092008018014A815084
:201460007047C04610180000811E091F00BFFCD2704780B5FFF730FF80BD000080B5FFF7BA
:18148000D1FF80BDFFE7FEE7D2E470470120704700BFFEE70000000093
:20149800150000000000002000000000000000000000000000000300020000008F0100006A
:2014B800010000000000000000000000020000008F01000001000000000000000000000080
:2014D800000018000000003000000000180000000030000000001800000000300000040018
:2014F800007D000000010000007D0000000100000807630807630800000800000D0A0008C5
:081518000008000800000000BB
:2015200000FF48656C6C6F20776FFF726C640D0A0024303F2C302C3123000003FFF00000F9
:20154000B1060000371400005F130000020000003401000020150000340120204C150000D5
:08156000000020200000000043
:00000001FF
