:20000000008020201D1200001912000019120000000000000000000000000000000000009B
:2000200000000000000000000000000019120000000000000000000019120000C50E000097
:20004000191200009D050000191200001912000019120000191200001912000019120000D1
:20006000000000001912000019120000000000000000000019120000191200001D0B0000AC
:2000800019120000191200001912000019120000191200001912000000000000000000005E
:2000A000010200001912000000000000000000001912000000000000191200001912000091
:2000C00080B590B034200721049100F06FFE01200890C10548480B9000F002FF06200590E7
:2000E0000421039100F062FE03990B9800F0F8FE0499089800F05AFE0B980221079100F0FF
:20010000EFFE059900200A9000F050FE08990B9800F0E6FE07980A9B01930093032106911E
:200120001A4600F071FC06990A9B0193009305200D901A4600F068FC079800F00DFE0D98E2
:2001400000F00AFE07992D2000F030FE07992E2000F0C6FD0799262000F028FE0799272018
:2001600000F0BEFD0799142000F020FE0799152000F0B6FD132000F0CBFE232000F0C8FE95
:20018000222000F0C5FE212000F0C2FE08980A9B0093420409922C20194600F071FC099A15
:2001A0000A9B00932B20194600F06AFC2A2000F0EFFD099A0A9B00932020194600F060FC1B
:2001C0000B98392149020C9100F08EFF0B980C9900F086FE09480E90882100F0B1FE0D9924
:2001E0000E9849040F9100F0A9FD0E980F9900F0C1FD10B080BDC04600000A4000200A4023
:2002000080B582B0414800F0BFFF401E01900C2878D80198810001A040588746510200005A
:200220005902000069020000AB020000030300000303000005030000E5020000030300004A
:2002400003030000E502000003030000030300002F490620087056E02C48082100F0B4FD1B
:200260002B49032008704EE0294905200870FFE7264800F0C5FD002816D1FFE7284800685F
:200280002849096888420AD2FFE7204800F036FF234B1A68511C19602349885403E01B48FF
:2002A00000F02CFFFFE7E3E72DE01949022008701848006818490968884212D2FFE71548DF
:2002C000009002681548811813480068801A82B20E4800F099FA0099024608688018086073
:2002E000FFE710E00A480078042805D0FFE708480078012804D1FFE7054907200870FFE7F8
:20030000FFE7FFE7FFE702B080BDC04600000F40380120203001202034012020180120202F
:20032000280120202C01202008012020B0B5364A80184A6842600A78222A56D8930001A499
:20034000E3589F46E1030000EB030000E1030000EB030000EB030000EB030000EB0300000F
:20036000EB030000EB030000EB030000EB030000EB030000EB030000EB030000EB0300000D
:20038000EB030000D1030000EB030000D1030000EB030000EB030000EB030000EB03000021
:2003A000EB030000EB030000EB030000EB030000EB030000EB030000EB030000EB030000CD
:2003C000EB030000D1030000EB030000D1030000036803242407A343012464071B1903E04F
:2003E000036803242407A34303600B69C360CB68C46A064D2540064C1C402B19C362097AAD
:2004000011430160B0BDC046041800008888FDFF77770200F0B5294A8218294BC0180B791A
:20042000202B0DD0274C002B1CD10D686D1E4560C56E25408835C5660646703688251CE049
:200440000C68641E4460C46E1E4D2C401E4EA419C466046F2C40A41904671C4C01256D079D
:2004600006460AE00525ED010E6876084660C66E26407619C66606467036376827402F43D5
:200480003760C46A124D2C40C462046B2C4004630024C4640465C46F8F25ED432C40C46701
:2004A00014682C401460497919430268094B1340BD220A40D118891C0160F0BD8418000050
:2004C0000418000024493E0001040000FFFFFFCF8888FDFF4000FFCF80B58AB025480090FE
:2004E00000F022FD2448019000F01EFD2348029000F092FD2248039000F08EFD21480490F4
:2005000000F08AFD2048059000F086FD1F48069000F052FD1E48079000F0AEFD1D48089023
:2005200000F0AAFD1C48099000F0A6FD009800F0E3FC019800F0E0FC029800F061FD039845
:2005400000F05EFD049800F05BFD059800F058FD069800F025FD079800F076FD089800F048
:2005600073FD099800F070FD102000F04BFE0AB080BDC04600000A4000200A4000A086408D
:2005800000000940004008400080864000000F4000201040000010400080104080B501200F
:2005A00000F03CFC022837D1FFE70120C1041B4800F06EFD002813D0FFE701208104174861
:2005C00000F066FD002805D0FFE715498868401C886004E012498868401E8860FFE7FFE712
:2005E000012041040D4800F053FD002813D0FFE701200104094800F04BFD002805D0FFE77D
:2006000007494869401C486104E005494869401E4861FFE7FFE7FFE780BDC04600200A408B
:20062000F000202080B586B01C491D48059000F02DFC05981B49FFF7EDFE05980023029370
:20064000009319461A4600F0F3FC029A0598114600F00EFC029A05987D210902039100F079
:20066000C9FD029B059801210491009119461A4600F0DEFC0299049A059800F0F9FB039953
:20068000049A059800F0B6FD059800F05FFD0598032100F065FD06B080BDC04686120000EF
:2006A00000A086407012000080B586B01C491D48059000F0EBFB05981B49FFF7ABFE059875
:2006C00000230293009319461A4600F0B1FC029A0598114600F0CCFB029A05987D2109024A
:2006E000039100F087FD029B059801210491009119461A4600F09CFC0299049A059800F063
:20070000B7FB0399049A059800F074FD059800F01DFD0598032100F023FD06B080BDC0467E
:20072000891200000000094078120000F0B5441C00780023082B30D02578C6070FD1667850
:200740002D0137097F190F253540ED1C122D0BD102256657F5B2002E08D4E61C0CE0641CC3
:200760004E1C0D70314615E0A61C06E0261DE4787F221540E20155191235094A97420ED047
:20078000FC43002D05D00A5D4F1C0A706D1E3946F7E7344640085B1CCCE72046C7E7F0BD37
:2007A000FF0F000080B582B014491548019000F072FA01980321490200F05AFA019800F048
:2007C000CBFB019800F0A4FC01981F2100F000FC01980021009100F023FA0099019800F0EB
:2007E0000BFA019800F0D0FB0198064900F0FAFA019800F0BDFB02B080BDC0468E120000FE
:2008000000000F4087040000F0B581B0002A22D091235B01C3180F200402901E0090561E3A
:200820000020DF6927421BD00F5C1F60864210D0DF69274211D00F187D781D60009D8542DB
:2008400007D0DD6925420AD0BD781D60C01C8242E7D1104604E0002002E0401C00E0801C1C
:2008600080B201B0F0BD000080B584B003900291019203980B49401802990B4A00F0A8F9FE
:2008800003980A49401801993F2200F0A1F90399074A881889580122114000F099F904B075
:2008A00080BDC04610110000FFFF0000141100000411000070B511221302C218C458012513
:2008C000AC43C4500C888D7825438C882C43C558084E2E40084D2540AC19C4508879CB79D8
:2008E0000343087A184351687E23994318400818506070BDE798FDFF1867000080B582B0E9
:200900000D490E48019000F051FC01980C49FFF7D1FF0198002100F0F3F901981A2103221A
:20092000FFF7A2FF01980121890200F0BDFA019800F0B9FB02B080BD6E12000000801040B7
:200940005012000080B5FFF7C7FDFFF7B9FB00F0B5F9FFF767FEFFF7A7FE00F0ABF800F085
:20096000C3F8FFF71FFF00F02FF800F00DF8FFF7C5FF03497422002088540249885480BDA0
:20098000780020200000202080B582B00B490C48019000F00BFC01980A49FFF78BFF0198C3
:2009A000002100F0ADF90198D0211522FFF75CFF019800F078FB02B080BDC0468C120000DF
:2009C000000010405A12000080B582B00B490C48019000F0EBFB01980A49FFF76BFF019800
:2009E000002100F08DF90198D0211522FFF73CFF019800F058FB02B080BDC04690120000FB
:200A0000002010406412000010B584B0079C069C039002910192009302980199084300994E
:200A2000084306990843079908430449084303998900034A885004B010BDC04680000400A9
:200A40000480424070B50A480A4C84420CD00A4D0A4EB54208D02A686968501C12789200B8
:200A6000A25890470835F4E700BF00BF70BDC046A412000098120000B4120000C4120000E0
:200A800010B584B0069C03900291019200930298019908430099084306990843034908438B
:200AA00003998900024A885004B010BD810004000480424080B582B008490948019000F057
:200AC000E5F901980749FFF731FC0198012100F0C1F9019800F03AFB02B080BD8012000088
:200AE000004008402812000080B582B008490948019000F0CBF901980749FFF717FC01985B
:200B0000012100F0A7F9019800F020FB02B080BD83120000008086403C12000080B50948E1
:200B200000F03BFB0B280AD1FFE7064800F022FB014605480170007800F034F800E0FFE7E1
:200B400080BDC046008010404001202081B001466846017000214056002809D4FFE768461A
:200B600001781F2001400120884002490860FFE701B0704780E200E081B0014668460170B9
:200B800000214056002809D4FFE7684601781F2001400120884002490860FFE701B0704722
:200BA00000E100E080B582B001A90870FFE7074800F056FA002801D0FFE7F8E701A8017896
:200BC000024800F07BFA02B080BDC0460080104084B0039002910192039800680090009889
:200BE00001998843009000980299019A114008430399086004B0704780B584B001910146E5
:200C00000198039102A908800398044A8018098807221202FFF7DCFF04B080BD3812000019
:200C200080B584B0019101460198039102A908700398044A801809780722FFF7C9FF04B085
:200C400080BDC04638120000084880F3088800BF00BF00F0E5FA002801D0FFF7F3FE002067
:200C600000F05DF8012000F0DDFAC0460080202080B584B0019101460198039102A90880DF
:200C80000398092252028018098803225202FFF79FFF04B080BD70B50122120383180C7897
:200CA0005D680C26B54334402C195C60497883580724A34321405918815070BD80B582B0EC
:200CC0000020019000F090F9019800F0B5F800F089FA00F027FA00F02FFA02B080BD000028
:200CE00082B00190009100980349084301998900024A885002B07047800004000480424037
:200D000080B582B001900091019811210902401800990322D203FFF75BFF02B080BD80B515
:200D200082B000200190FFF70DFE0F200090FFF70DFF0098FFF720FFFFE7FEE782B00190D3
:200D40000091009B0199034A88581843885002B07047C0464810000081B0009000988100CC
:200D6000034A885801235B061843885001B070470480424082B001900091009B0199034A4A
:200D800088581843885002B07047C0462810000081B0009000988100024A0348885001B09F
:200DA0007047C046048042408100040082B00190009100988021084301998900014A8850CD
:200DC00002B070470480424082B001900091009B0199034A88589843885002B07047C046CC
:200DE0002810000082B001900091009B0199034A88581843885002B07047C046281000002B
:200E000081B000900098044940580F2108404142484101B07047C0463C12000081B00146DC
:200E2000684601700178302048430249405801B07047C0460011404080B582B0014601A806
:200E40000170017802480322FFF7C2FE02B080BD00010B4082B001900091009B0199034A72
:200E600088581843885002B07047C0462810000010B592008018044A83580724A404A343E7
:200E800021405918815010BD3018000010B50122120383180C789C604B7883508978014AA0
:200EA000815010BD0C11000082B001900091009B0199034A88581843885002B07047C0461F
:200EC0002810000005480068002805D0FFE703490868401E0860FFE77047C0463C012020A0
:200EE00082B00190009100980199024A885002B07047C046D012000081B00090009901207C
:200F0000C2020248885001B07047C0460100002681B0009000988100024A8120885001B006
:200F20007047C0460480424081B000900099024A0248885001B0704704080000030000B1FE
:200F400082B001900091009B01999D20420188581843885002B0704781B000900099092009
:200F60004202885801231B021843885001B0704781B000900099034A885801231843885093
:200F800001B070472812000081B000900099034A885804231843885001B07047281200002C
:200FA00081B0009000990120C2020248885001B07047C0460100002681B000900099024A95
:200FC0000248885001B0704704080000030000B182B001906846017000780199014A8850B0
:200FE00002B070472412000081B001466846017000780249086001B07047C04608030B40CC
:2010000081B0009000990120C2020248885001B07047C0460100002681B000900099024A34
:201020000248885001B0704704080000030000B110B5029CA400001911431943014A81507A
:2010400010BDC0465018000081B0009000990120C2020248885001B07047C046010000265F
:2010600081B000900098034940580121084001B07047C0460811000081B000900099024A9C
:201080000248885001B0704704080000030000B182B00190009101982721C90140580099D6
:2010A000084002B0704781B00090009911200202885801231843885001B0704782B001908E
:2010C000684601700078019989225201885002B0704703228058002805D0401E4A1C0023BF
:2010E0000B701146F7E7704782B0019000910098019995225201885002B0704781B00090F7
:20110000009802494058C0B201B070471C12000081B000900099024A0020885001B0704746
:20112000141200000349086801221202904308607047C04608010B40034908680122120356
:20114000104308607047C04604010B4081B000900099024A0120885001B0704708110000A7
:2011600082B0019000910098019911221202885002B0704781B00090009802494058C0B2B3
:2011800001B070472411000081B000900098812149014058C0B201B0704781B000900098A2
:2011A000812149014058C0B201B0704710B50122120383180C789C604978815010BD10B595
:2011C00000239A4203D0CC5CC4545B1CF9E710BD80B50B4603214258C11D184600F018F859
:2011E00080BD000002490868012290430860704708010B4092008018014A81507047C0468B
:2012000010180000811E091F00BFFCD27047000080B5FFF7D4FF80BDFFE7FEE714E57047E5
:081220000120704700BFFEE74A
:20122800020000008F010000010000000000000000000000020000008F0100000100000080
:201248000000000000000000000018000000003000000000180000000030000000001800DE
:201268000000003000000400007D000000010000007D00000001000008076308076308004A
:101288000008000008000800080000000000000036
:201298002D070000D1110000D310000002000000390100000001000001FFF000A41200005A
:1012B80000002020AC1200003C01202000000000AB
:00000001FF
