:20000000008020201D15000019150000191500000000000000000000000000000000000092
:20002000000000000000000000000000191500000000000000000000191500001915000036
:2000400019150000C105000019150000191500001915000019150000191500001915000098
:200060000000000019150000191500000000000000000000A1080000250500001915000023
:2000800019150000191500001915000019150000191500001915000000000000000000004C
:2000A00019150000191500000000000000000000191500000000000019150000191500005A
:2000C00080B58EB03A200721029100F0EFFF01200790810648480A9001F058F80299352020
:2000E00000F0E4FF07990A98090601F04FF83420082100F0DBFF07990A98C90501F046F81E
:2001000006200221069100F0D1FF0A980421039101F03CF803990023099301930093142009
:2001200004901A4600F018FD0399099B01930093152005901A4600F00FFD049800F08CFF22
:20014000059800F089FF06992D2000F0AFFF06992E2000F043FF0699262000F0A7FF0699C7
:20016000272000F03BFF0699099800F09FFF0699079800F033FF132001F020F8232001F070
:200180001DF8222001F01AF8212001F017F80798099B0093420408922C20194600F052FD24
:2001A000089A099B00932B20194600F04BFD2A2000F06EFF089A099B00932020194600F075
:2001C00041FD0A98392149020B9101F01EF90A980B9900F0DBFF09480C90882101F006F861
:2001E0000C98052149040D9100F028FF0C980D9900F040FF0EB080BD00000A4000200A400B
:20020000B0B5364A80184A6842600A78222A56D8930001A4E3589F46B5020000BF02000041
:20022000B5020000BF020000BF020000BF020000BF020000BF020000BF020000BF020000C0
:20024000BF020000BF020000BF020000BF020000BF020000BF020000A5020000BF020000B0
:20026000A5020000BF020000BF020000BF020000BF020000BF020000BF020000BF02000090
:20028000BF020000BF020000BF020000BF020000BF020000BF020000A5020000BF02000070
:2002A000A5020000036803242407A343012464071B1903E0036803242407A34303600B69D3
:2002C000C360CB68C46A064D2540064C1C402B19C362097A11430160B0BDC0460418000004
:2002E0008888FDFF77770200F0B5294A8218294BC0180B79202B0DD0274C002B1CD10D6858
:200300006D1E4560C56E25408835C5660646703688251CE00C68641E4460C46E1E4D2C40EF
:200320001E4EA419C466046F2C40A41904671C4C01256D0706460AE00525ED010E6876081F
:200340004660C66E26407619C66606467036376827402F433760C46A124D2C40C462046B13
:200360002C4004630024C4640465C46F8F25ED432C40C46714682C40146049791943026863
:20038000094B1340BD220A40D118891C0160F0BD841800000418000024493E000104000089
:2003A000FFFFFFCF8888FDFF4000FFCF80B58AB02548009000F00EFF2448019000F00AFFF8
:2003C0002348029000F07EFF2248039000F07AFF2148049000F076FF2048059000F072FF8D
:2003E0001F48069000F03EFF1E48079000F0B2FF1D48089000F0AEFF1C48099000F0AAFF05
:20040000009800F0CFFE019800F0CCFE029800F04DFF039800F04AFF049800F047FF05981B
:2004200000F044FF069800F011FF079800F07AFF089800F077FF099800F074FF102001F0B8
:2004400062F80AB080BDC04600000A4000200A4000A0864000000940004008400080864014
:2004600000000F4000201040000010400080104080B586B02448049000210591234A00F01E
:20048000B1FC04980599224A00F098FC049805992C2200F025FC0498059900F042FDFFE79D
:2004A0001948002100F050FD002802D1FFE700BEF6E718480321019100F0ECFA64200290FF
:2004C00000F02AFB0199144800F0E4FA029800F023FB0199114800F0DDFA029800F01CFB40
:2004E00001990F4800F0D6FA029800F015FB0648002100F003FD0D20039000F009FC039802
:2005000000F01CFC06B080BD00A0424024111040F0002020B3150000B9150000B6150000A8
:20052000B015000080B584B003A90020087002A90870214800F0A6FF10283AD1FFE71F4898
:20054000007824282CD1FFE71C482A21405C232826D1FFE701A900200870FFE701A8007838
:20056000072819DCFFE701A8017805204843134940188079312809D1FFE701A80078802117
:20058000C1400398084303A90870FFE7FFE70198401C01A90870E1E702A901200870FFE77B
:2005A00003A8007802A909780122114000F07EFC00E0FFE704B080BD002010401C0120208A
:2005C00080B5012000F08EFD022837D1FFE70120C1041B4800F0E2FE002813D0FFE7012007
:2005E0008104174800F0DAFE002805D0FFE715498868401C886004E012498868401E886065
:20060000FFE7FFE7012041040D4800F0C7FE002813D0FFE701200104094800F0BFFE002861
:2006200005D0FFE707494869401C486104E005494869401E4861FFE7FFE7FFE780BDC0461A
:2006400000200A404801202080B586B01C491D48059000F07FFD05981B49FFF745FE05989A
:2006600000230293009319461A4600F037FE029A0598114600F060FD029A05987D2109028C
:20068000039100F02BFF029B059801210491009119461A4600F022FE0299049A059800F095
:2006A0004BFD0399049A059800F018FF059800F0D5FE0598032100F0DBFE06B080BDC04631
:2006C000C215000000A08640A015000080B586B01C491D48059000F03DFD05981B49FFF73D
:2006E00003FE059800230293009319461A4600F0F5FD029A0598114600F01EFD029A05989C
:200700007D210902039100F0E9FE029B059801210491009119461A4600F0E0FD0299049A7E
:20072000059800F009FD0399049A059800F0D6FE059800F093FE0598032100F099FE06B06F
:2007400080BDC046C515000000000940A8150000F0B5441C00780023082B30D02578C60739
:200760000FD166782D0137097F190F253540ED1C122D0BD102256657F5B2002E08D4E61C51
:200780000CE0641C4E1C0D70314615E0A61C06E0261DE4787F221540E20155191235094A72
:2007A00097420ED0FC43002D05D00A5D4F1C0A706D1E3946F7E7344640085B1CCCE72046BB
:2007C000C7E7F0BDFF0F000080B582B016491748019000F060FE0198154900F013F9019820
:2007E000002100F01BFC01981121172200F0E4F8019801210091C90300F0BAFC0099019811
:20080000890200F077FD019800F080FD0198702100F024FB0198022100F034FB019800F046
:20082000C8FD02B080BDC0469E150000000010408015000080B582B016491748019000F0C0
:200840002AFE0198154900F0DDF80198002100F0E5FB01981121172200F0AEF801980121D5
:200860000091C90300F084FC00990198890200F041FD019800F04AFD0198702100F0EEFAEE
:200880000198022100F0FEFA019800F092FD02B080BDC046CF1500000020104094150000AA
:2008A00080B582B0144800F0EDFD102820D1FFE7412000F059FA7D20800000F02DF90F485E
:2008C00000F014FE002804D1FFE70E4800F062F90AE00A4800F00AFE2C2804D1FFE70848FF
:2008E00000F058F9FFE7FFE7044800F053F900E0FFE702B080BDC04600001040F000202028
:20090000C8150000D115000080B582B014491548019000F03FFB01980321490200F027FB1E
:20092000019800F06FFC019800F07AFD01981F2100F0A4FC01980021009100F07BFA009911
:20094000019800F063FA019800F074FC0198064900F0BAFB019800F061FC02B080BDC04650
:20096000CB15000000000F4087040000F0B581B00646536894689589D089009017695069A4
:200980001C432C433C43009B1843000120430B01F318092464021851107852788900711839
:2009A000024304480B58BF24A34322409A180A5001B0F0BD1011000080B584B003900291FE
:2009C000019203980B49401802990B4A00F0E2F903980A49401801993F2200F0DBF90399E1
:2009E000074A881889580122114000F0D3F904B080BDC04610110000FFFF000014110000BA
:200A00000411000070B511221302C218C4580125AC43C4500C888D7825438C882C43C55894
:200A2000084E2E40084D2540AC19C4508879CB790343087A184351687E2399431840081849
:200A4000506070BDE798FDFF1867000080B5FFF7ADFCFFF735FB00F0B0FAFFF7F5FDFFF74D
:200A600035FE00F009F900F021F9FFF74DFFFFF7E1FEFFF7A9FE00F02FF800F03EFD034905
:200A80007422002088540249885480BD780020200000202080B584B0039002A8017001A9A7
:200AA00000200870FFE701A8007802A9097888420DDAFFE7039801A90978415C054800F034
:200AC0008EFCFFE70198401C01A90870EBE704B080BDC0460000104080B582B00B490C4867
:200AE000019000F0D8FC01980A49FFF78BFF0198002100F093FA01981A210322FFF75CFFB4
:200B0000019800F056FC02B080BDC046CD150000008010408A15000083B00290002001903E
:200B2000FFE701980299884213D2FFE700200090FFE7009880097C2806D8FFE700BFFFE742
:200B40000098401C0090F4E7FFE70198401C0190E7E703B07047000010B584B0079C069C54
:200B60000390029101920093029801990843009908430699084307990843044908430399BD
:200B80008900034A885004B010BDC046800004000480424080B582B00190FFE701980178A6
:200BA00000200029009005D0FFE70198411E88410090FFE70098C007002807D0FFE701988D
:200BC000411C0191007800F0CFF8E7E702B080BD70B50A480A4C84420CD00A4D0A4EB54225
:200BE00008D02A686968501C12789200A25890470835F4E700BF00BF70BDC046FC15000087
:200C0000F0150000041600001416000080B582B000200190FFF71AFF09480090FFF7BAFFD4
:200C20000098FFF7B7FF4B208000FFF775FF0098FFF7B0FFFFF71CFC00F0E0F9FFE7FEE73C
:200C40006001202010B584B0069C03900291019200930298019908430099084306990843BF
:200C60000349084303998900024A885004B010BD810004000480424080B582B0084909487F
:200C8000019000F067FA01980749FFF7B9FA0198012100F043FA019800F0E0FB02B080BDA5
:200CA000BC150000004008405815000080B582B008490948019000F04DFA01980749FFF7BE
:200CC0009FFA0198012100F029FA019800F0C6FB02B080BDBF150000008086406C150000D9
:200CE00085B000920A460099019202460198049203AA107002A80180008804991278120120
:200D00008918024A885005B07047C0460C12000081B001466846017000214056002809D42B
:200D2000FFE7684601781F2001400120884002490860FFE701B0704780E200E081B0014682
:200D40006846017000214056002809D4FFE7684601781F2001400120884002490860FFE7A9
:200D600001B0704700E100E080B582B001A90870FFE7074800F0E2FA002801D0FFE7F8E702
:200D800001A80178024800F01FFB02B080BDC0460080104084B00390029101920398006828
:200DA0000090009801998843009000980299019A114008430399086004B0704784B0009277
:200DC00002460098039202AA1170019001980399127812018918024A885004B07047C046D8
:200DE0000812000084B0009202460098039202AA1170019001980399127812018918024A21
:200E0000885004B07047C0460412000080B584B0019101460198039102A908800398044AE8
:200E20008018098807221202FFF7B4FF04B080BD3812000080B584B00191014601980391F9
:200E400002A908700398044A801809780722FFF7A1FF04B080BDC0463812000080B584B004
:200E6000019101460198039102A908700398044A801809787022FFF78DFF04B080BDC0463C
:200E80000C11000080B584B0019101460198039102A908700398044A801809780722FFF782
:200EA00079FF04B080BDC0460C11000082B001AA1070684601700078012108400349087084
:200EC00001980349087002B07047C046470120206F012020084880F3088800BF00BF00F04D
:200EE0001FFB002801D0FFF773FE0020FFF78EFE012000F017FBC0460080202083B0009129
:200F000001460098029101A90870029809780901411809204202885802239843885003B0E7
:200F2000704783B0009101460098029101A9087002980978090141180920420288580223B2
:200F40001843885003B0704783B0009101460098029101A9087002980978090140180921F5
:200F60004902405802210840400803B0704780B584B0019101460198039102A90880039834
:200F8000092252028018098803225202FFF702FF04B080BD70B50122120383180C785D6807
:200FA0000C26B54334402C195C60497883580724A34321405918815070BD80B582B000208E
:200FC000019000F067F9019800F09AF800F07EFA00F030FA00F038FA02B080BD82B00190BF
:200FE000009100980349084301998900024A885002B07047800004000480424080B582B090
:20100000044800210191FFF78CFF01980249087002B080BD00A042407001202080B582B0CB
:2010200001900091019811210902401800990322D203FFF7AFFE02B080BD000082B0019078
:201040000091009B0199034A88581843885002B07047C0464810000081B0009000988100C9
:20106000034A885801235B061843885001B070470480424082B001900091009B0199034A47
:2010800088581843885002B07047C0462810000081B0009000988100024A0348885001B09C
:2010A0007047C046048042408100040082B00190009100988021084301998900014A8850CA
:2010C00002B070470480424082B001900091009B0199034A88581843885002B07047C04649
:2010E0002810000081B00146684601700178302048430249405801B07047C04600114040EB
:2011000080B582B0014601A80170017802480322FFF740FE02B080BD00010B4082B00190ED
:201120000091009B0199034A88581843885002B07047C0462810000010B592008018044AA5
:2011400083580724A404A34321405918815010BD3018000010B50122120383180C789C602B
:201160004B7883508978014A815010BD0C11000082B001900091009B0199034A88581843C1
:20118000885002B07047C0462810000082B00190009100980199024A885002B07047C046B7
:2011A000D012000081B0009000990120C2020248885001B07047C0460100002681B0009096
:2011C00000988100024A8120885001B07047C0460480424081B000900099024A02488850F5
:2011E00001B0704704080000030000B182B001900091009B01999D2042018858184388502B
:2012000002B0704781B00090009909204202885801231B021843885001B0704781B0009021
:201220000099034A885801231843885001B070472812000081B000900099034A8858042341
:201240001843885001B070472812000081B0009000990120C2020248885001B07047C046EA
:201260000100002681B000900099024A0248885001B0704704080000030000B182B0019094
:201280006846017000780199014A885002B070472412000081B00146684601700078024901
:2012A000086001B07047C04608030B4081B0009000990120C2020248885001B07047C04633
:2012C0000100002681B000900099024A0248885001B0704704080000030000B110B5029C94
:2012E000A400001911431943014A815010BDC0465018000082B00190009100980199024A58
:20130000885002B07047C0465810000081B00090009911200202885801235B0418438850F9
:2013200001B0704781B0009000990120C2020248885001B07047C0460100002681B000908E
:201340000098034940580121084001B07047C0460811000081B000900099024A0248885058
:2013600001B0704704080000030000B180B5034A03480121FFF7FAFA80BDC04628150000EC
:2013800000A0424080B5034A03480021FFF7EEFA80BDC0464015000000A0424082B00190E2
:2013A000009101982721C90140580099084002B0704781B00090009911200202885801237C
:2013C0001843885001B0704782B00190684601700078019989225201885002B0704782B00D
:2013E0000190684601700078019989225201885002B0704703228058002805D0401E4A1C2E
:2014000000230B701146F7E7704782B0019000910098019995225201885002B07047000071
:2014200081B000900099024A0020885001B070471412000003490868012212029043086052
:201440007047C04608010B400349086801221203104308607047C04604010B4081B00090FE
:201460000099024A0120885001B070470811000082B0019000910098019911221202885068
:2014800002B0704781B000900098812149014058C0B201B0704710B50122120383180C7810
:2014A0009C604978815010BD10B500239A4203D0CC5CC4545B1CF9E710BD80B50B4603212C
:2014C0004258C11D184600F023F880BD02490868012290430860704708010B4092008018A0
:2014E000014A81507047C046101800000021425C491C002AFBD1481E704780B5FFF736FF54
:20150000FFF740FF80BD811E091F00BFFCD2704780B5FFF7C9FF80BDFFE7FEE7DAE47047DE
:081520000120704700BFFEE747
:20152800150000000000002000000000000000000000000000000300130000000000002038
:2015480000000000000000000000000000000300020000008F0100000100000000000000ED
:2015680000000000020000008F010000010000000000000000000000000018000000003088
:20158800000000001800000000300000000018000000003000000800007D0000000100002D
:2015A800007D000000010000FFAA63FFAA65FFAA61FFAA5208076308076308000008000092
:1015C8003434000800040008003000000000000067
:2015D80000FF48656C6C6F20776FFF726C64340D0A00000100FFF00051070000BB14000057
:2015F800F51300000200000060010000D815000060012020FC150000000020200000000089
:00000001FF
