:2000000000802020B1100000AD100000AD10000000000000000000000000000000000000E5
:20002000000000000000000000000000AD1000000000000000000000AD100000AD10000089
:20004000AD100000AD100000AD100000AD100000AD100000AD100000AD100000AD100000B8
:2000600000000000AD100000AD1000000000000000000000AD100000AD1000000103000088
:20008000AD100000AD100000AD100000AD100000AD100000AD1000000000000000000000F2
:2000A000AD100000C10000000000000000000000AD10000000000000AD100000AD1000008B
:2000C00080B582B0414800F0A9FF401E01900C2878D80198810001A04058874611010000F3
:2000E00019010000290100006B010000C3010000C3010000C5010000A5010000C301000098
:20010000C3010000A5010000C3010000C30100002F490620087056E02C48082100F0C0FD57
:200120002B49032008704EE0294905200870FFE7264800F0D1FD002816D1FFE72848006894
:200140002849096888420AD2FFE7204800F02AFF234B1A68511C19602349885403E01B484C
:2001600000F020FFFFE7E3E72DE01949022008701848006818490968884212D2FFE715482C
:20018000009002681548811813480068801A82B20E4800F0F3FA009902460868801808605A
:2001A000FFE710E00A480078042805D0FFE708480078012804D1FFE7054907200870FFE739
:2001C000FFE7FFE7FFE702B080BDC04600200F40C3012020CC012020D0012020B3012020F3
:2001E000C4012020C8012020A301202080B58EB0142005210B9100F045FD0120039081023B
:200200003D48099000F0CAFD0B99152000F03AFD03990998C90200F0C1FD00200590042179
:20022000049100F02FFD0399099800F0B7FD0398049900F027FD09980221089100F0AEFDE8
:200240000499059B01930093252006901A4600F053FB0499059B01930093242007901A4622
:2002600000F04AFB069800F0E3FC079800F0E0FC0899084600F006FD08990B9800F0AAFCB5
:200280000899262000F0FEFC0899272000F0A2FC132000F09BFD232000F098FD222000F062
:2002A00095FD212000F092FD2C2000F0DDFC2B2000F0DAFC2A2000F0D7FC202000F0D4FCB9
:2002C0000998392149020A9100F061FE09980A9900F064FD09480C90882100F08FFD0B99A3
:2002E0000C9849040D9100F095FC0C980D9900F0ADFC0EB080BDC04600000A4000200A4056
:2003000080B582B02B4800F092FE0B284ED1FFE7284800F079FE0246274800900368591C4D
:2003200001602649CA5400684018401E007800F09BFB009800682B2837DBFFE71F48007889
:2003400024282ED1FFE71D482A21405C232828D1FFE71B490020087001A90870FFE701A849
:200360000078072819DCFFE701A8017805204843124940188079312809D1FFE701A8007843
:200380008022C2400E49087810430870FFE7FFE70198401C01A90870E1E70A490120087080
:2003A000FFE7054900200860FFE700E0FFE702B080BDC04600801040D40120207801202042
:2003C000D8012020E1012020F0B5294A8218294BC0180B79202B0DD0274C002B1CD10D6838
:2003E0006D1E4560C56E25408835C5660646703688251CE00C68641E4460C46E1E4D2C400F
:200400001E4EA419C466046F2C40A41904671C4C01256D0706460AE00525ED010E6876083E
:200420004660C66E26407619C66606467036376827402F433760C46A124D2C40C462046B32
:200440002C4004630024C4640465C46F8F25ED432C40C46714682C40146049791943026882
:20046000094B1340BD220A40D118891C0160F0BD841800000418000024493E0001040000A8
:20048000FFFFFFCF8888FDFF4000FFCF80B588B01A48019000F0A6FC1948029000F0A2FC03
:2004A0001848039000F016FD1748049000F012FD1648059000F0DEFC1548069000F03AFD7D
:2004C0001448079000F036FD019800F073FC029800F070FC039800F0F1FC049800F0EEFC2A
:2004E000059800F0BBFC069800F00CFD079800F009FD102000F0D0FD08B080BD00000A4060
:2005000000200A40002086400000864000200F40008010400000104080B586B01C491D4801
:20052000059000F01FFC05981B4900F079F8059800230293009319461A4600F0D7FC029AB3
:200540000598114600F000FC029A05987D210902039100F099FD029B05980121049100913D
:2005600019461A4600F0C2FC0299049A059800F0EBFB0399049A059800F086FD059800F08B
:200580002FFD0598032100F035FD06B080BDC046E410000000208640D410000080B586B02A
:2005A0001C491D48059000F0DDFB05981B4900F037F8059800230293009319461A4600F05D
:2005C00095FC029A0598114600F0BEFB029A05987D210902039100F057FD029B059801213B
:2005E0000491009119461A4600F080FC0299049A059800F0A9FB0399049A059800F044FD38
:20060000059800F0EDFC0598032100F0F3FC06B080BDC046E710000000008640DC10000022
:2006200070B582B04A790B79002A25D0184A202B02D00524E40100E0164C8218002B00D198
:200640008824156C144E35402D191564556C35402C1954641468114D2C40146054682C40C2
:200660005460002414625462146D8F25ED432C401465546D2C4054650A6800926A4613710E
:20068000897951711146FFF79FFE02B070BDC046381800000104000024493E008888FDFFBB
:2006A000F0B5441C00780023082B30D02578C6070FD166782D0137097F190F253540ED1C87
:2006C000122D0BD102256657F5B2002E08D4E61C0CE0641C4E1C0D70314615E0A61C06E001
:2006E000261DE4787F221540E20155191235094A97420ED0FC43002D05D00A5D4F1C0A7036
:200700006D1E3946F7E7344640085B1CCCE72046C7E7F0BDFF0F000080B582B01449154815
:20072000019000F044FA01980321490200F02CFA019800F06FFB019800F03EFC01981F214D
:2007400000F0A4FB01980021009100F0E1F90099019800F0C9F9019800F074FB0198064931
:2007600000F0ACFA019800F061FB02B080BDC046EC10000000200F4087040000F0B581B03D
:20078000002A22D091235B01C3180F200402901E0090561E0020DF6927421BD00F5C1F60C5
:2007A000864210D0DF69274211D00F187D781D60009D854207D0DD6925420AD0BD781D60F2
:2007C000C01C8242E7D1104604E0002002E0401C00E0801C80B201B0F0BD000080B584B0B4
:2007E00003900291019203980B49401802990B4A00F065F903980A49401801993F2200F08A
:200800005EF90399074A881889580122114000F056F904B080BDC04610110000FFFF00004A
:20082000141100000411000070B511221302C218C4580125AC43C4500C888D7825438C88DD
:200840002C43C558084E2E40084D2540AC19C4508879CB790343087A184351687E23994317
:2008600018400818506070BDE798FDFF1867000080B582B00D490E48019000F0E1FB019820
:200880000C49FFF7D1FF0198002100F0B3F9019811211722FFF7A2FF01980121890200F016
:2008A0006FFA019800F052FB02B080BDEE10000000801040CA10000080B582B00B490C4853
:2008C000019000F0BDFB01980A49FFF7ADFF0198002100F08FF90198D0211522FFF77EFFEB
:2008E000019800F033FB02B080BDC046EA10000000001040C010000010B584B0079C069CF4
:2009000003900291019200930298019908430099084306990843079908430449084303991F
:200920008900034A885004B010BDC046800004000480424080B582B00190FFE70198017808
:2009400000200029009005D0FFE70198411E88410090FFE70098C007002807D0FFE70198EF
:20096000411C0191007800F07FF8E7E702B080BD70B50A480A4C84420CD00A4D0A4EB542D7
:2009800008D02A686968501C12789200A25890470835F4E700BF00BF70BDC0460C110000DD
:2009A00000110000141100002411000080B5FFF76DFDFFF71BFC00F06DF8FFF7ADFDFFF73F
:2009C000EDFDFFF7A9FEFFF753FFFFF775FF0349B822002088540249885480BD0000202018
:2009E000BC00202081B001466846017000214056002809D4FFE7684601781F2001400120FA
:200A0000884002490860FFE701B0704780E200E081B001466846017000214056002809D478
:200A2000FFE7684601781F2001400120884002490860FFE701B0704700E100E080B584B015
:200A40000390029101920F200090FFF7CBFF0098FFF7DEFF0398FFF76DFF029900200860D3
:200A60000199087004B080BD80B582B001A90870FFE7074800F052FA002801D0FFE7F8E7BB
:200A800001A80178024800F06CFA02B080BDC0460080104080B582B00020019000F002FACB
:200AA000019800F035F900F0E7FA00F08FFA019800F03CF9019800F01DF902B080BD84B0B5
:200AC000039002910192039800680090009801998843009000980299019A11400843039937
:200AE000086004B07047000080B584B0019101460198039102A908800398044A801809886F
:200B000007221202FFF7DBFF04B080BD3812000080B584B0019101460198039102A90870FB
:200B20000398044A801809780722FFF7C8FF04B080BDC0463812000080B582B00020019074
:200B4000FFF734FF03480449044AFFF777FFFFE730BFFDE7D9012020D4012020E101202010
:200B6000084880F3088800BF00BF00F0A3FA002801D0FFF7FDFE0020FFF7DEFF012000F029
:200B80009BFAC0460080202080B584B0019101460198039102A908800398092252028018A6
:200BA000098803225202FFF78AFF04B080BD70B50122120383180C785D680C26B5433440DC
:200BC0002C195C60497883580724A34321405918815070BD82B00190009100980349084314
:200BE00001998900024A885002B07047800004000480424080B582B0019000910198112167
:200C00000902401800990322D203FFF758FF02B080BD000082B001900091009B0199034ACC
:200C200088581843885002B07047C0464810000081B0009000988100034A885801235B064E
:200C40001843885001B070470480424082B001900091009B0199034A88581843885002B058
:200C60007047C0462810000081B0009000988100024A0348885001B07047C04604804240C2
:200C80008100040082B00190009100988021084301998900014A885002B070470480424042
:200CA00082B001900091009B0199034A88589843885002B07047C0462810000082B0019061
:200CC0000091009B0199034A88581843885002B07047C0462810000081B0009000980449A1
:200CE00040580F2108404142484101B07047C0463C12000080B582B0014601A801700178DB
:200D000002480F22FFF7DBFE02B080BD04010B4080B582B0014601A801700178024803229A
:200D2000FFF7CDFE02B080BD00010B4080B582B0014601A80170017802483022FFF7BFFE27
:200D400002B080BD04010B4010B592008018044A83580724A404A34321405918815010BD13
:200D60003018000010B50122120383180C789C604B7883508978014A815010BD0C11000076
:200D800082B001900091009B0199034A88581843885002B07047C0462810000082B0019000
:200DA000009100980199024A885002B07047C046D012000081B0009000990120C202024872
:200DC000885001B07047C0460100002681B0009000988100024A8120885001B07047C04699
:200DE0000480424081B000900099024A0248885001B0704704080000030000B182B001903A
:200E00000091009B01999D20420188581843885002B0704781B000900099092042028858E9
:200E200001231B021843885001B0704781B000900099034A885801231843885001B0704790
:200E40002812000081B000900099034A885804231843885001B070472812000081B0009014
:200E600000990120C2020248885001B07047C0460100002681B000900099024A0248885075
:200E800001B0704704080000030000B182B001906846017000780199014A885002B07047AA
:200EA0002412000081B001466846017000780249086001B07047C04608030B4081B00090B5
:200EC00000990120C2020248885001B07047C0460100002681B000900099024A0248885015
:200EE00001B0704704080000030000B110B5029CA400001911431943014A815010BDC0460B
:200F00005018000081B0009000990120C2020248885001B07047C0460100002681B00090B2
:200F20000098034940580121084001B07047C0460811000081B000900099024A024888507C
:200F400001B0704704080000030000B181B00090009911200202885801231843885001B0F2
:200F6000704782B00190684601700078019989225201885002B0704703228058002805D08D
:200F8000401E4A1C00230B701146F7E7704782B0019000910098019995225201885002B0E9
:200FA0007047000081B00090009802494058C0B201B070471C12000081B000900099024A90
:200FC0000020885001B07047141200000349086801221202904308607047C04608010B404C
:200FE00081B000900099024A0120885001B070470811000082B00190009100980199112218
:201000001202885002B0704781B00090009802494058C0B201B070472411000081B000906F
:201020000098812149014058C0B201B0704781B000900098812149014058C0B201B0704703
:2010400010B50122120383180C789C604978815010BD10B500239A4203D0CC5CC4545B1CCB
:20106000F9E710BD80B50B4603214258C11D184600F018F880BD0000024908680122904355
:201080000860704708010B4092008018014A81507047C04610180000811E091F00BFFCD25E
:2010A0007047000080B5FFF7D4FF80BDFFE7FEE756E570470120704700BFFEE70000000005
:2010C0000000180000000030000000001800000000300000007D000000010000007D000085
:1010E00000010000080000080000080008000800D7
:2010F00000FF24302C302C3123000100FFF00000A106000065100000790F0000020000001B
:18111000D9010000F0100000D90120200C110000000020200000000076
:00000001FF
