:2000000000802020451400004114000041140000000000000000000000000000000000001D
:20002000000000000000000000000000411400000000000000000000411400007D10000089
:20004000411400002105000041140000411400004114000041140000411400004114000027
:2000600000000000411400004114000000000000000000004114000071040000B50B00004C
:20008000411400004114000041140000411400004114000041140000000000000000000062
:2000A000411400004114000000000000000000004114000000000000411400004114000097
:2000C00080B58EB026200621029100F067FF012006904104089148480A9000F0DDFF029931
:2000E000272000F05BFF06990A98890400F0D4FF3420082100F052FF06990A98C90500F021
:20010000CBFF02980221079100F048FF0A980421039100F0C1FF03990023099301930093FC
:20012000142004901A4600F07FFC0399099B01930093152005901A4600F076FC049800F0AD
:2001400003FF059800F000FF07992D2000F026FF07992E2000F0CAFE0799162000F01EFF86
:200160000799172000F0C2FE0799099800F016FF0698079900F0BAFE132000F0A5FF2320C2
:2001800000F0A2FF222000F09FFF212000F09CFF089A099B00932C20194600F0BDFC089A63
:2001A000099B00932B20194600F0B6FC2A2000F0E7FE089A099B00932020194600F0ACFC8D
:2001C0000A98392149020B9101F0A5F80A980B9900F062FF09480C90882100F08DFF0C9861
:2001E000052149040D9100F0A1FE0C980D9900F0B9FE0EB080BDC04600000A4000200A40B9
:20020000B0B5364A80184A6842600A78222A56D8930001A4E3589F46B5020000BF02000041
:20022000B5020000BF020000BF020000BF020000BF020000BF020000BF020000BF020000C0
:20024000BF020000BF020000BF020000BF020000BF020000BF020000A5020000BF020000B0
:20026000A5020000BF020000BF020000BF020000BF020000BF020000BF020000BF02000090
:20028000BF020000BF020000BF020000BF020000BF020000BF020000A5020000BF02000070
:2002A000A5020000036803242407A343012464071B1903E0036803242407A34303600B69D3
:2002C000C360CB68C46A064D2540064C1C402B19C362097A11430160B0BDC0460418000004
:2002E0008888FDFF77770200F0B5294A8218294BC0180B79202B0DD0274C002B1CD10D6858
:200300006D1E4560C56E25408835C5660646703688251CE00C68641E4460C46E1E4D2C40EF
:200320001E4EA419C466046F2C40A41904671C4C01256D0706460AE00525ED010E6876081F
:200340004660C66E26407619C66606467036376827402F433760C46A124D2C40C462046B13
:200360002C4004630024C4640465C46F8F25ED432C40C46714682C40146049791943026863
:20038000094B1340BD220A40D118891C0160F0BD841800000418000024493E000104000089
:2003A000FFFFFFCF8888FDFF4000FFCF80B58AB02548009000F094FE2448019000F090FEEE
:2003C0002348029000F004FF2248039000F000FF2148049000F0FCFE2048059000F0F8FE77
:2003E0001F48069000F0C4FE1E48079000F038FF1D48089000F034FF1C48099000F030FFEE
:20040000009800F055FE019800F052FE029800F0D3FE039800F0D0FE049800F0CDFE059880
:2004200000F0CAFE069800F097FE079800F000FF089800F0FDFE099800F0FAFE102000F01F
:20044000F5FF0AB080BDC04600000A4000200A4000A086400000094000400840008086407A
:2004600000000F4000201040000010400080104080B584B003A90020087002A90870254860
:2004800000F09AFF102841D1FFE72348009000F007FB224800F004FB0098007824282CD104
:2004A000FFE71D482A21405C232826D1FFE701A900200870FFE701A80078072819DCFFE78F
:2004C00001A8017805204843134940188079312809D1FFE701A800788021C14003980843DB
:2004E00003A90870FFE7FFE70198401C01A90870E1E702A901200870FFE703A8007802A935
:2005000009780122114000F06BFC00E0FFE704B080BDC04600201040F0002020EC14000032
:2005200080B5012000F056FD022837D1FFE70120C1041B4800F0C3FE002813D0FFE70120FE
:200540008104174800F0BBFE002805D0FFE715498868401C886004E012498868401E886024
:20056000FFE7FFE7012041040D4800F0A8FE002813D0FFE701200104094800F0A0FE002840
:2005800005D0FFE707494869401C486104E005494869401E4861FFE7FFE7FFE780BDC046BB
:2005A00000200A401C01202080B586B01C491D48059000F047FD05981B49FFF795FE05984F
:2005C00000230293009319461A4600F00DFE029A0598114600F028FD029A05987D2109028F
:2005E000039100F015FF029B059801210491009119461A4600F0F8FD0299049A059800F077
:2006000013FD0399049A059800F002FF059800F0ABFE0598032100F0B1FE06B080BDC04673
:20062000E614000000A08640C814000080B586B01C491D48059000F005FD05981B49FFF7CB
:2006400053FE059800230293009319461A4600F0CBFD029A0598114600F0E6FC029A05984F
:200660007D210902039100F0D3FE029B059801210491009119461A4600F0B6FD0299049A5F
:20068000059800F0D1FC0399049A059800F0C0FE059800F069FE0598032100F06FFE06B0B3
:2006A00080BDC046E914000000000940D0140000F0B5441C00780023082B30D02578C60790
:2006C0000FD166782D0137097F190F253540ED1C122D0BD102256657F5B2002E08D4E61CF2
:2006E0000CE0641C4E1C0D70314615E0A61C06E0261DE4787F221540E20155191235094A13
:2007000097420ED0FC43002D05D00A5D4F1C0A706D1E3946F7E7344640085B1CCCE720465B
:20072000C7E7F0BDFF0F000080B582B016491748019000F04AFE0198154900F009F90198E0
:20074000002100F0E3FB01981121172200F0DAF8019801210091C90300F082FC009901982C
:20076000890200F04DFD019800F056FD0198702100F00EFB0198022100F01EFB019800F067
:20078000A9FD02B080BDC046EF14000000001040B214000080B582B016491748019000F0FF
:2007A00014FE0198154900F0D3F80198002100F0ADFB01981121172200F0A4F801980121D8
:2007C0000091C90300F04CFC00990198890200F017FD019800F020FD0198702100F0D8FA31
:2007E0000198022100F0E8FA019800F073FD02B080BDC046F314000000201040BC14000036
:2008000080B582B014491548019000F04AFB01980321490200F032FB019800F079FC019835
:2008200000F084FD01981F2100F0AEFC01980021009100F099FA0099019800F081FA0198D0
:2008400000F07EFC0198064900F0B6FB019800F06BFC02B080BDC046F114000000000F406C
:200860008704000080B582B010480090002101910F4A00F051FA009801990E4A00F038FAAB
:20088000009801990B2200F0AFF90098019900F0CFFAFFE70548002100F0DDFA002802D160
:2008A000FFE700BEF6E702B080BDC04600A042402411104034012020F0B581B006465368C9
:2008C00094689589D0890090176950691C432C433C43009B1843000120430B01F3180924F1
:2008E000640218511078527889007118024304480B58BF24A34322409A180A5001B0F0BD3C
:200900001011000080B584B003900291019203980B49401802990B4A00F0D6F903980A49B0
:20092000401801993F2200F0CFF90399074A881889580122114000F0C7F904B080BDC04623
:2009400010110000FFFF0000141100000411000070B511221302C218C4580125AC43C450B2
:200960000C888D7825438C882C43C558084E2E40084D2540AC19C4508879CB790343087A72
:20098000184351687E23994318400818506070BDE798FDFF1867000080B582B00D490E4864
:2009A000019000F012FD01980C49FFF7D1FF0198002100F0ABFA01981A210322FFF7A2FF14
:2009C00001980121890200F04BFB019800F082FC02B080BDC614000000801040A81400003F
:2009E00080B5FFF7E3FCFFF76BFB00F06DFAFFF7DBFDFFF71BFE00F0A9F800F0C1F8FFF72D
:200A0000FFFEFFF7C7FEFFF78FFEFFF7C5FF00F007FD03497422002088540249885480BDAB
:200A2000780020200000202010B584B0079C069C039002910192009302980199084300991C
:200A4000084306990843079908430449084303998900034A885004B010BDC0468000040089
:200A60000480424080B582B000200190FFF7B8FF00F01AFC074800F013F8FFF7F3FE064826
:200A800000F00EF800F08EFC044800F009F8FFE7FEE7C04640012020D8140000DC1400007B
:200AA00080B582B00190FFE70198017800200029009005D0FFE70198411E88410090FFE77B
:200AC0000098C007002807D0FFE70198411C0191007800F0E3F8E7E702B080BD70B50A48D3
:200AE0000A4C84420CD00A4D0A4EB54208D02A686968501C12789200A25890470835F4E7AC
:200B000000BF00BF70BDC0461C15000010150000241500003415000010B584B0069C03901E
:200B200002910192009302980199084300990843069908430349084303998900024A8850CF
:200B400004B010BD810004000480424080B582B008490948019000F075FA01980749FFF7B1
:200B60004FFB0198012100F051FA019800F0FCFB02B080BDE01400000040084080140000B6
:200B800080B582B008490948019000F05BFA01980749FFF735FB0198012100F037FA0198F2
:200BA00000F0E2FB02B080BDE3140000008086409414000080B582B001A90020087009489A
:200BC00000F0FAFB0B280AD1FFE7064800F0E0FB014601A80170007800F060F800E0FFE73C
:200BE00002B080BD0080104085B000920A460099019202460198049203AA107002A8018024
:200C000000880499127812018918024A885005B07047C0460C12000081B001466846017026
:200C200000214056002809D4FFE7684601781F2001400120884002490860FFE701B0704781
:200C400080E200E081B001466846017000214056002809D4FFE7684601781F200140012051
:200C6000884002490860FFE701B0704700E100E081B001466846017000214056002809D497
:200C8000FFE7684601781F2001400120884002490860FFE701B0704700E100E080B582B0B5
:200CA00001A90870FFE7074800F0CEFA002801D0FFE7F8E701A80178024800F016FB02B048
:200CC00080BDC0460080104084B0039002910192039800680090009801998843009000985C
:200CE0000299019A114008430399086004B0704784B0009202460098039202AA11700190BA
:200D000001980399127812018918024A885004B07047C0460812000084B00092024600980B
:200D2000039202AA1170019001980399127812018918024A885004B07047C0460412000042
:200D400080B584B0019101460198039102A908800398044A8018098807221202FFF7B4FFF9
:200D600004B080BD3812000080B584B0019101460198039102A908700398044A80180978A4
:200D80000722FFF7A1FF04B080BDC0463812000080B584B0019101460198039102A90870C1
:200DA0000398044A801809787022FFF78DFF04B080BDC0460C11000080B584B001910146C7
:200DC0000198039102A908700398044A801809780722FFF779FF04B080BDC0460C11000016
:200DE00082B001AA1070684601700078012108400349087001980349087002B07047C04605
:200E00001B0120204E012020084880F3088800BF00BF00F019FB002801D0FFF75FFE0020A6
:200E2000FFF720FE012000F011FBC0460080202083B0009101460098029101A908700298C9
:200E400009780901411809204202885802231843885003B0704783B0009101460098029169
:200E600001A90870029809780901401809214902405802210840400803B0704780B584B040
:200E8000019101460198039102A908800398092252028018098803225202FFF715FF04B09F
:200EA00080BD70B50122120383180C785D680C26B54334402C195C60497883580724A34368
:200EC00021405918815070BD80B582B00020019000F066F9019800F08BF800F091FA00F064
:200EE0002FFA00F037FA02B080BD000082B00190009100980349084301998900024A8850EF
:200F000002B07047800004000480424080B582B00190009101981121090240180099032269
:200F2000D203FFF7D1FE02B080BD000082B001900091009B0199034A88581843885002B08D
:200F40007047C0464810000081B0009000988100034A885801235B061843885001B0704755
:200F60000480424082B001900091009B0199034A88581843885002B07047C04628100000DB
:200F800081B0009000988100024A0348885001B07047C046048042408100040082B001904C
:200FA000009100988021084301998900014A885002B070470480424082B001900091009B78
:200FC0000199034A88581843885002B07047C0462810000081B00146684601700178302010
:200FE00048430249405801B07047C0460011404080B582B0014601A80170017802480322D4
:20100000FFF762FE02B080BD00010B4082B001900091009B0199034A88581843885002B0A4
:201020007047C0462810000010B592008018044A83580724A404A34321405918815010BD7A
:201040003018000010B50122120383180C789C604B7883508978014A815010BD0C11000093
:2010600082B001900091009B0199034A88581843885002B07047C04628100000054800682B
:20108000002805D0FFE703490868401E0860FFE77047C0465001202082B0019000910098CB
:2010A0000199024A885002B07047C046D012000081B0009000990120C2020248885001B00F
:2010C0007047C0460100002681B0009000988100024A8120885001B07047C0460480424019
:2010E00081B000900099024A0248885001B0704704080000030000B182B001900091009B11
:2011000001999D20420188581843885002B0704781B00090009909204202885801231B02D1
:201120001843885001B0704781B000900099034A885801231843885001B070472812000094
:2011400081B000900099034A885804231843885001B070472812000081B000900099012091
:20116000C2020248885001B07047C0460100002681B000900099024A0248885001B07047C4
:2011800004080000030000B182B001906846017000780199014A885002B0704724120000D9
:2011A00081B001466846017000780249086001B07047C04608030B4081B00090009901202E
:2011C000C2020248885001B07047C0460100002681B000900099024A0248885001B0704764
:2011E00004080000030000B110B5029CA400001911431943014A815010BDC0465018000008
:2012000082B00190009100980199024A885002B07047C0465810000081B0009000991120C2
:201220000202885801235B041843885001B0704781B0009000990120C2020248885001B09A
:201240007047C0460100002681B000900098034940580121084001B07047C046081100007C
:2012600081B000900099024A0248885001B0704704080000030000B180B5034A034801218F
:20128000FFF71AFB80BDC0465014000000A0424080B5034A03480021FFF70EFB80BDC0464A
:2012A0006814000000A0424080B582B00F200190FFF7B2FC0198FFF7C5FC02B080BD82B054
:2012C0000190009101982721C90140580099084002B0704781B000900099112002028858F0
:2012E00001231843885001B0704782B00190684601700078019989225201885002B07047FC
:2013000003228058002805D0401E4A1C00230B701146F7E7704782B00190009100980199FF
:2013200095225201885002B07047000081B000900099024A0020885001B070471412000036
:201340000349086801221202904308607047C04608010B400349086801221203104308609F
:201360007047C04604010B4081B000900099024A0120885001B070470811000082B001907D
:2013800000910098019911221202885002B0704781B00090009802494058C0B201B07047EC
:2013A0002411000080B50D20FFF762FC01490020087080BD4F01202081B000900098812198
:2013C00049014058C0B201B0704710B50122120383180C789C604978815010BD10B50023F2
:2013E0009A4203D0CC5CC4545B1CF9E710BD80B50B4603214258C11D184600F01DF880BD18
:2014000002490868012290430860704708010B4092008018014A81507047C046101800007D
:2014200080B5FFF729FFFFF733FF80BD811E091F00BFFCD27047000080B5FFF7CFFF80BDB3
:10144000FFE7FEE7E0E470470120704700BFFEE7DA
:20145000150000000000002000000000000000000000000000000300130000000000002011
:2014700000000000000000000000000000000300020000008F0100000100000000000000C6
:2014900000000000020000008F010000010000000000000000000000000018000000003061
:2014B000000000001800000000300000000018000000003000000400007D0000000100000A
:2014D000007D000000010000310D0A00320D0A000807630807630800000800000D0A0008DA
:0814F0000008000800000000E4
:2014F80000FF48656C6C6F20776F3F726C640D0A000003FFF0000000B1060000EF13000098
:2015180001130000020000003F010000F8140000400120201C15000000002020000000005F
:00000001FF
