:2000000000802020FD0600006306000063060000000000000000000000000000000000004B
:20002000000000000000000000000000630600000000000000000000630600006306000085
:20004000630600006306000063060000630600006306000063060000630600006306000058
:20006000000000006306000063060000000000000000000063060000630600006306000073
:200080006306000063060000630600006306000063060000630600000000000000000000EA
:2000A000630600006306000000000000000000006306000000000000630600006306000033
:2000C000F0B5294A8218294BC0180B79202B0DD0274C002B1CD10D686D1E4560C56E2540AE
:2000E0008835C5660646703688251CE00C68641E4460C46E1E4D2C401E4EA419C466046F14
:200100002C40A41904671C4C01256D0706460AE00525ED010E6876084660C66E2640761938
:20012000C66606467036376827402F433760C46A124D2C40C462046B2C4004630024C464E5
:200140000465C46F8F25ED432C40C46714682C401460497919430268094B1340BD220A40D4
:20016000D118891C0160F0BD841800000418000024493E0001040000FFFFFFCF8888FDFFA3
:200180004000FFCFB0B5214985228A6401239C021F480460CA64DA0202600A46083A8424BA
:2001A000146003600A1F146002220260194A941C0C60CC600C685B061C430C60CC681C4367
:2001C000CC60154B82249C61551CDD614C628D6281244C64DC609C605C601A63DA629A62A6
:2001E0001A6001463039392252020A6002600B48016888220A4302600948016A052252040C
:2002000011430162016811430160B0BD0C804240D0120A408100040084804240A0330A403A
:2002200028300A4070B582B04A790B79002A25D0184A202B02D00524E40100E0164C8218F6
:20024000002B00D18824156C144E35402D191564556C35402C1954641468114D2C401460F2
:2002600054682C405460002414625462146D8F25ED432C401465546D2C4054650A6800921E
:200280006A461371897951711146FFF719FF02B070BDC046381800000104000024493E001C
:2002A0008888FDFFF0B581B01A491B4C204600F0E7F91A492046FFF7B5FF002500952046C9
:2002C00029462A462B4600F0E9F9204629462A4600F0C8F97D200602204631462A4600F024
:2002E000FDF901270097204629462A462B4600F0D5F9204629463A4600F0B4F92046314606
:200300003A4600F0EBF9064887600321016001B0F0BDC0462C070000002086401C0700002F
:2003200000318640F0B581B01A491B4C204600F0A7F91A492046FFF775FF002500952046DD
:2003400029462A462B4600F0A9F9204629462A4600F088F97D200602204631462A4600F023
:20036000BDF901270097204629462A462B4600F095F9204629463A4600F074F92046314645
:200380003A4600F0ABF9064887600321016001B0F0BDC0462F070000000086402407000004
:2003A0000011864010B51249124C204600F08DF91149204600F0B0F8104801680322D203F9
:2003C0009143016001690E4A0A40D0320261416915220A432A218A43426141680122114071
:2003E000436893435918416001681143016010BD3207000000801040080700000091104086
:200400000000FFFF10B51249124C204600F05DF91149204600F080F8104801680322D203D1
:200420009143016001690E4A0A40D0320261416915220A432A218A43426141680122114010
:20044000436893435918416001681143016010BD3607000000001040120700000011104017
:200460000000FFFFF0B581B00D480E4941600E4A51600E4B59600E4C61600E4D69600E4EA5
:2004800071600E4F79600E490160116019602160296031603960102000F028F901B0F0BDE0
:2004A00000080A40030000B100280A40002886400008864000080F40000810400088104081
:2004C0000100002680B51149114800F0B7F811480168032252020A430260026801210B02EB
:2004E00013430360002242611F224262826B07239A438263826B1B029A438263826A0423E1
:2005000013438362826A0A43826280BD3407000000000F4000120F4070B511221302C21814
:20052000C4580125AC43C4500C888D7825438C882C43C558084E2E40084D2540AC19C4507E
:200540008879CB790343087A184351687E23994318400818506070BDE798FDFF18670000AE
:200560000D48002101600D48011F0A680323DB4313400B60416801229143416041681202BD
:2005800091434160016830229143016001680F22914301607047C04608030B4004010B40C4
:2005A00070B50A480A4C84420CD00A4D0A4EB54208D02A686968501C12789200A258904792
:2005C0000835F4E700BF00BF70BDC0464407000040070000440700004C07000080B5FFF7F7
:2005E00041FFFFF7CFFDFFF7BBFFFFF75BFEFFF799FEFFF767FFFFF705FFFFF7D3FE034805
:20060000B821002242540248425480BD00002020BC002020084880F3088800BF00BF00F02F
:200620006FF8002801D0FFF7BBFF002000F063F8012000F067F8C0460080202070B50122C1
:20064000120383180C785D680C26B54334402C195C60497883580724A343214059188150B2
:2006600070BDFEE710B592008018044A83580724A404A34321405918815010BD30180000DF
:2006800010B50122120383180C789C604B7883508978014A815010BD0C11000010B5029C42
:2006A000A400001911431943014A815010BDC0465018000003228058002805D0401E4A1CB8
:2006C00000230B701146F7E7704710B50122120383180C789C604978815010BD92008018EF
:2006E000014A81507047C04610180000811E091F00BFFCD27047FFF771FFFEE78AE770477B
:080700000120704700BFFEE775
:200708000000180000000030000000001800000000300000007D000000010000007D000046
:100728000001000008000008000008000800080098
:180738000000000078010000B5060000380700000000202000000000F6
:00000001FF
